:020000040800F2
:10000000000B0020654300084D0300084F03000863
:1000100053030008570300085B03000800000000BA
:100020000000000000000000000000005F03000866
:100030006103000800000000630300086503000876
:100040007F4300087F4300087F4300087F43000888
:100050007F4300087F4300087F4300087F43000878
:100060007F4300087F4300087F4300087F43000868
:100070007F4300087F4300087F4300087F43000858
:100080007F4300087F4300087F4300087F43000848
:100090007F4300087F4300087F4300087F43000838
:1000A0007F4300087F4300087F4300087F43000828
:1000B000AD0300087F4300087F4300087F4300082A
:1000C0007F4300087F4300087F4300087F43000808
:1000D0007F430008670300087F4300087F43000850
:1000E0007F4300087F4300087F4300087F430008E8
:1000F0007F4300087F4300087F4300087F430008D8
:100100007F4300087F4300087F4300087F430008C7
:100110007F4300087F4300087F4300087F430008B7
:100120007F4300087F4300087F4300087F430008A7
:10013000DFF80CD004F0E4FD00480047450100085A
:10014000000B002086B000BF00F002FB00F0F2F9C7
:1001500000F0E4FA00F062FB00F04BFB142001F029
:1001600088F800F0AFFD00F02FFB00F010FB5CA062
:1001700004F064FEB3E064480078012802D1002056
:100180006149087061480078012802D100205F4968
:1001900008705F480078012802D100205C4908708F
:1001A0005C48007801287DD100205A49087000F091
:1001B0009CFE00F075FE5849B1F9040004F0C7FB3D
:1001C00004465549B1F9020004F0C1FB0546524905
:1001D000B1F9000004F0BBFB064650485049514AB3
:1001E000CDE90065CDE90242CDE904104E488368AF
:1001F000426801684D4801F05DFC4D49B1F90400C9
:1002000004F0A5FB80464B480168404604F016FA0E
:10021000074604F0B6FB04B24549B1F9020004F008
:1002200096FB824643480168504604F007FA804630
:10023000414904F003FA074604F0A3FB05B23C4928
:10024000B1F9000004F083FB82463A480168504649
:1002500004F0F4F98046384904F0F0F9074604F058
:1002600090FB06B23548B0F90410B0F90200334AE9
:10027000B2F90020284BCDE90054CDE902200491C9
:10028000B3F90420B3F90210B3F90000334602F0C9
:10029000B1FA29492148006804F0D0F981464A465C
:1002A0001F4800E006E001681E48006802F0FCF903
:1002B00000F074FA22480078012802D10020204979
:1002C000087020480078012802D100201D490870DC
:1002D0001D480078012802D100201B4908704AE718
:1002E0002D2D2D2D2D2D2D2D2D2D2D2D2D2D2D2D3E
:1002F0002D2D2D463120414E4F20494D552E2E2E6D
:100300002E2E0D0A00000000000000200100002039
:100310000200002003000020640000209004002060
:100320008C04002088040020580500200AD7233CB4
:100330006A0000202C000020000080BF5000002038
:10034000040000200500002006000020704700BFC8
:10035000FEE700BFFEE700BFFEE700BFFEE7704715
:1003600070477047704710B540F225514A4803F076
:10037000A7F8D0B14848001D0088C4B2412C03D171
:1003800001204649087010E0472C03D10120444960
:1003900008700AE04D2C03D101204249087004E0A6
:1003A000492C02D101204049087010BD10B501212F
:1003B000880703F0C2FF00286DD00121880703F0F1
:1003C000CDFF3A480068401C38490860384800684A
:1003D000401C3749086037480068401C35490860B0
:1003E00035480068401C3449086034480068401CA7
:1003F0003249086032480068401C31490860314881
:100400000068401C2F49086028480068012805DB67
:1004100000202649086001202B4908702448006804
:100420000A2805DB002022490860012027490870BE
:10043000204800680F2805DB00201E4908600120C5
:10044000234908701C480068142805DB00201A495D
:10045000086001201F49087018480068322805DB31
:1004600000201649086001201B49087014480068E4
:10047000642805DB00201249086001201749087034
:1004800010480068B0F57A7F05DB00200D49086050
:1004900001201349087010BD0038014007000020FA
:1004A00008000020090000200A0000203000002081
:1004B00034000020380000203C00002040000020D4
:1004C000440000204800002000000020010000201F
:1004D000020000200300002004000020050000208E
:1004E000060000202DE9F04107460D46164600247F
:1004F0000CE0295D384602F05FFF601C84B200BF4B
:100500004021384602F0C6FF0028F9D0B442F0DBA3
:10051000BDE8F08170B504460D46E1B28A4802F0AC
:100520004BFF00BF4021884802F0B4FF0128F9D1F9
:10053000204670BD00B585B0012144F2040002F0F0
:100540009BFD4FF40070ADF8100018208DF81300DB
:1005500003208DF8120004A97C4802F0D1FA4FF470
:100560008060ADF8100004208DF8130004A97748CE
:1005700002F0C6FA4FF4E13000900020ADF804001C
:10058000ADF80600ADF80800ADF80C000C20ADF891
:100590000A0069466C4802F016FE012240F225511D
:1005A000694802F0A8FE0121674802F098FE05B0F4
:1005B00000BDF0B503460D461646002729460A2E13
:1005C00003D0002008702846F0BD33B9302001F870
:1005D000010B002008702846F6E7002B03DA2D20D7
:1005E00001F8010B5B4242F210720DE093FBF2F452
:1005F00004B937B104F1300001F8010B04FB1233E8
:1006000001270A2092FBF0F2002AEFDC002008709C
:100610002846D9E70FB470B586B006460CA80190FD
:1006200074E00B9800785C281CD10B98401C0B9050
:1006300000786E2809D072280FD10D21304602F0C3
:10064000BBFE0B98401C0B900BE00A21304602F0D9
:10065000B3FE0B98401C0B9003E00B98401C0B90D2
:1006600000BF49E00B980078252840D10B98401C2A
:100670000B900078642818D0732833D1019810C8E3
:1006800001900BE02178304602F096FE00BF402139
:10069000304602F0FFFE0028F9D0641C20780028C4
:1006A000F0D10B98401C0B9020E0019820C80190DD
:1006B0000A2202A92846FFF77CFF02AC0BE0217852
:1006C000304602F079FE00BF4021304602F0E2FEE3
:1006D0000028F9D0641C20780028F0D10B98401C29
:1006E0000B9003E00B98401C0B9000BF04E00B98AC
:1006F0000178304602F060FE0B98401C0B9000BF62
:100700004021304602F0C6FE0028F9D00B98007850
:10071000002886D106B070BC5DF814FB08B54FF414
:10072000E06002F01FF925208DF8000001208DF80F
:10073000010000208DF8020001208DF803006846BA
:1007400002F015F908BD0000003801400008014022
:1007500008B50121102002F08FFC10208DF8030055
:100760004002ADF8000003208DF8020069461548EC
:1007700002F0C6F94FF40051124802F06EFA08BDBB
:1007800010B54FF400510F4802F067FA10BD10B5D4
:100790004FF400510B4802F062FA10BD10B54FF44F
:1007A0000051084802F04CFA28B94FF400510548AE
:1007B00002F053FA04E04FF40051024802F04FFAFD
:1007C00010BD00000010014010B50121084602F0E4
:1007D00060FC0121880703F0E7FA10BD10B5002185
:1007E0004FF0804003F0E0FA0021012002F051FCBC
:1007F00010BD08B54FF4E06002F0B4F81C208DF88D
:10080000000000208DF8010003208DF80200012077
:100810008DF80300684602F0AAF808BD0EB5012164
:10082000084602F036FC4FF0804002F08DFE0920B1
:10083000ADF8040041F61F40ADF800000020ADF80F
:100840000600ADF8020069464FF0804002F050FF0C
:100850000121880703F06EFD01221146900703F085
:10086000BEFA0121880703F09FFA0021012002F05F
:1008700010FC0EBD00BF00BF00BF00BF00BF00BF27
:1008800000BF00BF00BFFD48007838B90F2000BF8F
:100890000100A0F10102D0B2FAD100BF704708B543
:1008A0000121082002F0E8FBC020ADF80000102074
:1008B0008DF8030003208DF802006946F04802F02D
:1008C0001FF908BD00B5EE48006820F07040EC4903
:1008D00008600846006840F0405008608020E84901
:1008E0001031086040200860FFF7C4FFE44808307A
:1008F000006808B9012000E0002000F0800008B185
:10090000002000BD8020DE4914310860FFF7B2FFEF
:10091000DB480830006800F0800008B10020F0E7F4
:100920008020D74914310860FFF7A4FF0120E8E7D1
:1009300000B5D348006820F07040D14908600846EF
:10094000006840F0405008604020CD4914310860F4
:10095000FFF790FF8020CA4914310860FFF78AFF33
:100960004020C74910310860FFF784FF8020C44948
:1009700010310860FFF77EFF00BD00B54020C04980
:1009800014310860FFF776FFBD48006820F0704022
:10099000BB4908600846006840F04050086080206D
:1009A000B74914310860FFF765FF4020B4491031A2
:1009B0000860FFF75FFF4020B14914310860FFF77E
:1009C00059FF00BD00B54020AD4914310860FFF764
:1009D00051FFAB48006820F07040A9490860084604
:1009E000006840F0405008608020A5491031086040
:1009F000FFF740FF4020A24910310860FFF73AFF9F
:100A000040209F4914310860FFF734FF00BD00B556
:100A100000239B48006820F0704099490860084610
:100A2000006840F00040086040209549143108609B
:100A3000FFF720FF8020924910310860FFF71AFF6E
:100A400040208F4910310860FFF714FF07E0581C61
:100A5000C3B2322B03DDFFF76BFF012000BD8848D6
:100A60000830006800F080000028F0D14020844960
:100A700014310860FFF7FEFE0020EFE710B50346D3
:100A800008247F48006820F070407D4908600846CF
:100A9000006840F0405008601BE040207849143165
:100AA0000860FFF7E7FE03F0800020B18020744962
:100AB0001031086003E08020714914310860580645
:100AC000030EFFF7D7FE40206D4910310860FFF795
:100AD000D1FE2000A4F10101CCB2DED14020684952
:100AE0001431086010BD30B5044608250023644861
:100AF000006820F07040624908600846006840F0D5
:100B00000040086080205E491031086015E05806FA
:100B1000030E40205A4914310860FFF7ABFE402015
:100B2000574910310860FFF7A5FE554808300068A6
:100B300000F0800008B143F001032800A5F1010195
:100B4000CDB2E4D140204E491431086014B1FFF712
:100B500014FF01E0FFF736FF184630BD70B50446BC
:100B60000D461646FFF7AEFE6106080EFFF786FF3C
:100B7000FFF74DFF18B1FFF7DBFE012070BD2846DF
:100B8000FFF77CFFFFF743FF3046FFF777FFFFF7E4
:100B90003EFFFFF7CDFE0020F0E770B504460D469E
:100BA0001646FFF78FFE6106080EFFF767FFFFF797
:100BB0002EFF18B1FFF7BCFE012070BD2846FFF7DD
:100BC0005DFFFFF724FFFFF77DFE012101EB4401EC
:100BD000C8B2FFF753FFFFF71AFF0020FFF783FFAC
:100BE0003070FFF7A5FE0020E7E7F0B505460E469A
:100BF00017461C46FFF766FE6906080EFFF73EFF24
:100C0000FFF705FF18B1FFF793FE0120F0BD304656
:100C1000FFF734FFFFF7FBFE05E014F8010BFFF7C9
:100C20002DFFFFF7F4FE3800A7F10101CFB2F4D198
:100C3000FFF77EFE0020E9E7F0B506460F461446B2
:100C40001D46FFF73FFE7106080EFFF717FFFFF77F
:100C5000DEFE18B1FFF76CFE0120F0BD3846FFF74D
:100C60000DFFFFF7D4FEFFF72DFE012101EB46013A
:100C7000C8B2FFF703FFFFF7CAFE11E04C000020E7
:100C8000000C0140012C04D10020FFF72CFF28703C
:100C900003E00120FFF727FF28706D1C601EC4B21F
:100CA000002CEFD1FFF744FE0020D6E76FF04B0099
:100CB0007D4908806FF0230048806FF039008880FC
:100CC0000120704700B5FFF7F1FF7849087000BDBB
:100CD00010B501220A210C20FFF740FF10BD7FB59F
:100CE000002400250020724908706A4603210C2068
:100CF000FFF753FF0DF1010204210C20FFF74DFF18
:100D00009DF800009DF8011040EA012000B2ADF806
:100D100008000DF1020205210C20FFF73EFF0DF146
:100D2000030206210C20FFF738FF9DF802009DF812
:100D3000031040EA0120404200B2ADF80A0001AAC7
:100D400007210C20FFF729FF0DF1050208210C20D7
:100D5000FFF723FF9DF804009DF8051040EA0120ED
:100D6000404200B2ADF80C00BDF90800002802DDD9
:100D7000BDF9080002E0BDF908004042B0F5C87FA7
:100D800019DCBDF90A00002802DDBDF90A0002E005
:100D9000BDF90A004042B0F5C87F0CDCBDF90C007B
:100DA000002802DDBDF90C0002E0BDF90C00404254
:100DB000B0F5C87F00DD7FBDBDF808003D49088063
:100DC000BDF80A004880BDF80C00888037480078DC
:100DD00001280FD100240BE0364830F814003249C6
:100DE00031F81410401A00B2324921F81400641C82
:100DF000032CF1DB304800680A2802D300202E497A
:100E0000086000240CE02B4830F8140004EB840147
:100E10002A4A02EB8101284A126821F81200641C58
:100E2000032CF0DB24480068401C234908600020A4
:100E30002349886048600860002413E000250EE024
:100E400004EB84001D4901EB800030F915001C49BA
:100E500051F8241008441A4941F824006D1C0A2D49
:100E6000EEDB641C032CE9DB154800680A2190FBCB
:100E7000F1F000B20F490880114840680A2190FB48
:100E8000F1F000B20B4948800D4880680A2190FBC0
:100E9000F1F000B207498880FFF71AFF00BF8AE728
:100EA00010B5FFF71CFF10BD560000205C000020AD
:100EB0004C000020500000206000002010050020A1
:100EC0004C0500207020F74908805B2048806FF0B7
:100ED0008F0088806FF01F00F34908801D20488034
:100EE0006FF00D0088800120704770B50024002548
:100EF0000120EE490870EE4B0E223B216820FFF7DF
:100F00009BFEEB484078EA49097840EA012000B2AC
:100F1000E8490880E648C078E549897840EA012038
:100F200000B2E4494880E2484079E149097940EA61
:100F3000012000B2DF498880DD48407ADC49097A27
:100F400040EA012000B2DC490880D948C07AD8497B
:100F5000897A40EA012000B2D7494880D448407BD2
:100F6000D349097B40EA012000B2D3498880D348A5
:100F7000007801281AD100BF16E0CE4830F81400DE
:100F8000C84931F81410401A00B2CA4921F81400B7
:100F9000C94830F81400C44931F81410401A00B29E
:100FA000C54921F81400641C032CE6DBC448006822
:100FB0000A2802D30020C2490860002418E0BD4876
:100FC00030F8140004EB8401BE4A02EB8101BC4AF4
:100FD000126821F81200B84830F8140004EB8401BC
:100FE000B94A02EB8101B64A126821F81200641C6A
:100FF000032CE4DBB2480068401CB14908600020C3
:10100000B249886048600860B149886048600860FB
:10101000002421E000251CE004EB8400A94901EB39
:10102000800030F91500A94951F824100844A74957
:1010300041F8240004EB8400A34901EB800030F95F
:101040001500A34951F824100844A14941F824008F
:101050006D1C0A2DE0DB641C032CDBDB9B48006865
:101060000A2190FBF1F000B292490880974840684D
:101070000A2190FBF1F000B28E49488093488068C5
:101080000A2190FBF1F000B28A49888090480068FC
:101090000A2190FBF1F000B2874908808C48406833
:1010A0000A2190FBF1F000B28349488088488068AB
:1010B0000A2190FBF1F000B27F49888000240CE007
:1010C0007D4931F9140003F042FC0646814903F0E2
:1010D000B5FA814941F82400641C032CF0DB70BD93
:1010E000F8B506460F4614461D466B4601223946A2
:1010F0003046FFF7A1FD2DB10120A0409DF8001062
:10110000084305E00120A0409DF8001021EA0000FE
:10111000C0B200909DF8002039463046FFF71EFD12
:1011200008B9012000E000206C490870F8BD2DE9E5
:10113000F8430746884614461D46089E6B46012222
:1011400041463846FFF778FD601CFF2101FA00F0A8
:10115000C4F108012944491EFF220A41104300F04E
:10116000FF09C5F1080006FA00F0C6B2C4F1070095
:1011700006419DF8000000EA090000909DF800007B
:10118000304300909DF8002041463846FFF7E6FCCA
:10119000BDE8F88370B504464FF47A7090FBF4F024
:1011A000401EC5B22A4619216820FFF7D7FC70BD42
:1011B00038B50446032302226B2168200094FFF710
:1011C000B6FF38BD38B50446022304221B2168202F
:1011D0000094FFF7ACFF0020032307221B2100909F
:1011E0006820FFF7A4FF38BD38B504460223042267
:1011F0001C2168200094FFF79AFF00200323072298
:101200001C2100906820FFF792FF38BD10B50446FE
:10121000234606226B216820FFF762FF10BD10B540
:101220000446234605226A216820FFF759FF10BDB6
:1012300010B504462346012237216820FFF750FFEE
:1012400010BD38B50446032302221A2168200094F9
:10125000FFF76DFF38BD7047002107E0002200E076
:10126000521C4CF250339A42FAD3491C8142F5D3B6
:10127000704770B504460125FFF711FBFFF7EBFF40
:101280002A2C33D006DC052C2AD00A2C2AD0142C88
:1012900034D129E0622C2BD0BC2C2BD0B4F5807F2C
:1012A0002CD129E070000020760000204C000020A6
:1012B00064050020640000206A0000207D000020FA
:1012C0008000002072050020AE050020EC05002003
:1012D000F805002098FA793D580500207C00002090
:1012E00006250DE005250BE0042509E0032507E0B0
:1012F000022505E0012503E0002501E0032500BFEC
:1013000000BF00201B490870FFF780FF0A20FFF78D
:10131000A3FF0320FFF74CFF0A20FFF79DFF4FF4C8
:101320007A70FFF737FF0A20FFF796FF0320FFF7D9
:1013300049FF0A20FFF790FF0220FFF755FF0A2020
:10134000FFF78AFFE8B2FFF77CFF0A20FFF784FF70
:101350000020FFF764FF0A20FFF77EFF0120FFF760
:1013600067FF0A20FFF778FFFFF7ACFD024908701E
:1013700070BD00004C0000207D00002010B5044628
:101380000021204603F078FB01D8204610BD84F0F0
:101390000040FBE72DE9FE4F82468846002150467B
:1013A00003F060FB04D00021404603F05BFB01D159
:1013B000002498E05046FFF7E1FF01904046FFF718
:1013C000DDFF0290DDE9010103F04CFB05D2DDE910
:1013D000010103F065F9074604E0DDE9011003F0BF
:1013E0005FF90746FE49384603F03CFB01D23D4613
:1013F0002BE04FF08741384603F020F983464FF049
:101400007C5103F015F98146484603F0BAFA0646C6
:10141000304603F09CFA8346494603F00CF98146B6
:10142000F04850F82650024652F826100346721C27
:1014300053F8220003F0FCF84946009003F0FEF850
:101440008346294603F0A2F80546DDE9011003F0C2
:1014500013FB20D20021404603F00EFB09D80021E7
:10146000504603F009FB01D82C463CE085F00044CF
:1014700039E0DD4C0021504603F0FEFA05D829463C
:10148000204603F0D5F804462DE02146284603F017
:10149000CFF8044627E00021504603F0EDFA11D8BA
:1014A000D24C0021404603F0E7FA05D829462046F1
:1014B00003F0BEF8044616E02946204603F066F81D
:1014C000044610E0CA4C0021404603F0D5FA05D886
:1014D0002946204603F05AF8044604E029462046EF
:1014E00003F0A6F804462046BDE8FE8F70B504461A
:1014F0000D4621462846FFF74DFF70BD2DE9F05FF0
:1015000004464FF07F594FF07C51204603F096F887
:10151000824625462E46B748A0EB66063546294644
:10152000504603F08BF88346294603F087F880463F
:10153000494603F080F80746294603F07FF8054640
:101540002946504603F07AF88346294603F076F898
:101550008046494603F06FF80746294603F06EF8C7
:1015600005462946204603F069F8BDE8F09F2DE9BD
:10157000FC5F06460F46002213463046394603F00C
:101580002DFA14D24FF0C0429B4B3046394603F03F
:101590006CF982464FF0C042984B03F0BFF880468A
:1015A00032463B4603F061F904460D4613E04FF026
:1015B000C042914B3046394603F057F980464FF010
:1015C000C0428E4B03F04EF9824632463B4603F052
:1015D0004CF904460D46002213462046294603F0E6
:1015E000FDF919D20022864B2046294603F096F8D1
:1015F00080464FF04042834B03F037F98246002289
:101600007F4B03F08BF822462B46CDE9000103F017
:101610002CF904460D4618E00022794B2046294655
:1016200003F01DF980464FF04042774B03F01DF95F
:1016300082460022724B03F071F822462B46CDE918
:10164000000103F012F904460D4620462946BDE884
:10165000FC9F2DE9F04704460D464FF0010A6B4A06
:101660006B4B2046294603F0CDF909D8674A684BF1
:101670002046294603F0F3F804460D464FF0FF3AA2
:10168000504603F06DF906460F4620462946FFF7FF
:101690006EFF804632463B4603F0E7F8BDE8F08730
:1016A0002DE9F84F04460D4601200090574A594B4A
:1016B0002046294603F032F804460D46534A544B5F
:1016C0002046294603F09EF90AD84FF0FF300090DB
:1016D0004E4A4F4B2046294603F0C1F804460D46BA
:1016E000009803F03DF906460F4620462946FFF7CD
:1016F000B0FF804632463B4603F0B7F8824603F01F
:1017000095F9BDE8F88F70B505460E4600212846CC
:1017100003F0B2F90BD23146284602F089FF0446A5
:101720000021204603F09EF902D2002400E02C465E
:10173000204670BD70B505460E460021284603F0D0
:1017400091F90BD23146284602F020FF04460021D1
:10175000204603F091F902D2002400E02C462046F6
:1017600070BD2DE9F04107460C4616462146384625
:1017700003F082F90BD23146384602F059FF054694
:101780002146284603F06EF90CD225460AE0314680
:10179000384602F0FBFE05462146284603F06CF968
:1017A00000D225462846BDE8F0812DE9F0470446E1
:1017B0000F46154685F000493946484602F0E6FED8
:1017C0008046214603F04EF926D23946284602F0DB
:1017D000DDFE8046214603F04FF91DD23E461CE057
:1017E0008180803B84000020DB0F4940DB0FC93F34
:1017F000DB0FC9BFDF59375F2FF0D93F305FF43FB0
:101800000000F03FCCCCCCBFCCCCCC3FF1D4C85303
:10181000FB210940FB21F93F26463046BDE8F08711
:1018200070B504460D4600225D4B2046294603F064
:10183000E9F806D200225B4B2046294603F00FF858
:1018400070BD0022584B2046294603F0C7F806D247
:101850000022544B2046294602F060FFF0E7204664
:101860002946EDE710B504465049204603F004F937
:1018700004D24F49204602F0DBFE10BD4D49204600
:1018800003F0F0F804D24A49204602F07FFEF4E764
:101890002046F2E72DE9F04106460C4615460021A8
:1018A000284603F0E9F801D2284601E085F000401F
:1018B0000746316903F0E0F80BD20021284603F017
:1018C000D1F804D2206980F00040BDE8F0812069A1
:1018D000FBE70021284603F0CFF801D2284601E0BB
:1018E00085F000400746F16803F0C6F80AD20021EF
:1018F000284603F0B7F803D2E06880F00040E4E740
:10190000E068E2E70021284603F0B6F801D2284655
:1019100001E085F000400746B16803F0ADF80AD257
:101920000021284603F09EF803D2A06880F0004012
:10193000CBE7A068C9E70021284603F09DF801D253
:10194000284601E085F000400746716803F094F8EE
:101950000AD20021284603F085F803D2606880F09F
:101960000040B2E76068B0E70021284603F084F841
:1019700001D2284601E085F000400746316803F0B7
:101980007BF80AD20021284603F06CF803D22068C5
:1019900080F0004099E7206897E7002095E7000075
:1019A0000080664000807640008066C000003443BE
:1019B0000000B443000034C32DE9F04704460D464F
:1019C00016466168084602F039FE8046A16808465E
:1019D00002F034FE8146414602F0D8FD0746FFF78B
:1019E0008DFDFE4908602168084602F027FE80460A
:1019F000A168084602F022FE8146414602F0C6FD7B
:101A00000746FFF77BFDF64908600021A06803F058
:101A100029F802D24FF0FF3000E00120F1490870B0
:101A2000084690F9000002F092FF8246216802F019
:101A300005FE8046A96802F001FE0746E7482968CE
:101A4000006802F0FBFD8146394602F0F1FD30608E
:101A5000A968606802F0F2FD8146E24890F9000052
:101A600002F075FF8246DE480168504602F0E6FD4E
:101A70008046696802F0E2FD0746494602F0D8FD5B
:101A80007060A968A06802F0D9FD80466968606846
:101A900002F0D4FD81462968206802F0CFFD82461D
:101AA000494602F073FD0746414602F06FFDB06003
:101AB000BDE8F0870FB58FB0CB490F9802F0BEFD9F
:101AC000CA490B9002F0BAFD0C90C948B0F9000069
:101AD0004043C749B1F90210C54AB2F9022001FBDF
:101AE0000200C349B1F90410C14AB2F9042001FB54
:101AF00002000A9002F02BFF0B90FFF7FFFCBD499C
:101B000008600021BB48006802F0ACFF65D0B8480F
:101B1000B0F90000079002F01AFF0890B54801687C
:101B2000089802F0BDFD0990B3480068014608908E
:101B3000099802F07DFD0A900C9902F07FFD0B9050
:101B4000AD48006801460A900B9802F01FFDAA49B3
:101B50000860A748B0F90200079002F0F8FE08906C
:101B6000A4480168089802F09BFD0990A2484068CB
:101B700001460890099802F05BFD0A900C9902F06A
:101B80005DFD0B909C48406801460A900B9802F05E
:101B9000FDFC994948609648B0F90400079002F0AE
:101BA000D6FE089093480168089802F079FD0990E4
:101BB0009148806801460890099802F039FD0A9022
:101BC0000C9902F03BFD0B908B48806801460A900F
:101BD0000B9802F0DBFC88498860884A864988486F
:101BE000FFF7EAFE854840680890844840680790FF
:101BF000089902F023FD0A908048006808907F4809
:101C000000680790089902F019FD09900A9902F0FE
:101C1000BDFC0B90FFF772FC7A49086077480068BA
:101C200000210B9002F01EFF2ED074484068002166
:101C30000B9002F017FF27D07048806800210B90AE
:101C400002F010FF20D000216E48006802F00AFF69
:101C50001AD06A48006808906A480168089802F03B
:101C60001FFD0A906548406808906648016808981A
:101C700002F016FD09900A99FFF78CFB62490B9060
:101C800002F0DCFC614908606148806808906048A7
:101C900000680790089902F0D1FC0A905C48C0687F
:101CA00008905B4840680790089902F0C7FC0990CB
:101CB0000A9902F0BDFC4FF080410B9002F0BEFC8F
:101CC0004F4908605248C0680890514880680790A2
:101CD000089902F0B3FC0A904D48406808904C48BF
:101CE00000680790089902F0A9FC09900A9902F08F
:101CF0004DFC4FF080410B9002F0A0FC4049486041
:101D0000434880680790424880680690079902F02F
:101D100095FC09903E48406807903D484068069011
:101D2000079902F08BFC0890099902F02FFC4FF004
:101D300080410A9002F082FC4FF07E510B9002F03D
:101D40007AFC2F49886008460068014608904FF0E9
:101D50008B4002F073FC0990149902F06CFC2D4941
:101D60000A9002F06BFC0B902B48006801460A9029
:101D70000B9802F05DFC2949086021484068014643
:101D800008904FF08B4002F059FC0990159902F031
:101D900052FC20490A9002F051FC0B901E4840680A
:101DA00001460A900B9802F043FC1C494860144815
:101DB0008068014608904FF08B4002F03FFC09908C
:101DC000169902F038FC13490A9002F037FC0B9088
:101DD0001148806801460A900B9821E0D004002049
:101DE000D4040020CC040020C3F5C8400000A0416A
:101DF00050000020B4040020F40600204C0600200F
:101E000004060020B004002033336542DC040020C7
:101E1000940400205C201940700600206406002015
:101E200002F006FCFE498860FE488068099008467A
:101E300080680890099902F001FC0B90F94840680D
:101E40000790F74840680690079902F0F7FB099061
:101E5000F44800680790F24800680690079902F07D
:101E6000EDFB0890099902F091FB0A900B9902F0A2
:101E70008DFBED4988601699084602F0DFFB0A9059
:101E80001599084602F0DAFB08901499084602F00A
:101E9000D5FB0790089902F079FB09900A9902F0A6
:101EA00075FB0B90FFF72AFBE049086000211498AE
:101EB00002F0E2FD01D2149802E0149880F0004094
:101EC000DB490B9002F0CEFD7ED20021159802F086
:101ED000D3FD01D2159802E0159880F00040D44956
:101EE0000B9002F0BFFDEFD20021169802F0C4FD66
:101EF00001D2169802E0169880F00040CC490B9071
:101F000002F0B0FDE0D2C9480168149802F0C8FBA5
:101F10001490C6480168159802F0C2FB1590C3489A
:101F20000168169802F0BCFB1690C0480168C148D1
:101F300002F098FD74D2BE49BC48006802F092FDE0
:101F40006ED2B848406801460990169802F076FBB8
:101F50000B90B448806801460990159802F06EFB1A
:101F60000A900B9902F064FBB349C860AD488068E1
:101F700001460990149802F061FB0B90A948006893
:101F800001460990169802F059FB0A900B9902F04D
:101F90004FFBA9490861A9490F9802F04FFB4FF088
:101FA0007E510B9002F04AFB0D90A3488069099086
:101FB000A148C0680890099902F03AFB0A900D996F
:101FC00002F03CFB0B9000E026E09B488069014654
:101FD0000A900B9802F0DAFA974988610846C069BE
:101FE0000990084600690890099902F021FB0A90BF
:101FF0000D9902F023FB0B908F48C06901460A90AF
:102000000B9802F0C3FA8C49C861084680690860E1
:102010000846C069486003E00020874908604860BE
:10202000854800684FF07C51089002F007FB4FF0A4
:102030008041099002F002FB0A900F9902F0FEFA2B
:102040000B907D48406A01460A900B9802F09EFA78
:1020500079494862084640684FF07C51089002F088
:10206000EDFA4FF08041099002F0E8FA0A900F99DA
:1020700002F0E4FA0B907048806A01460A900B98CF
:1020800002F084FA6C498862084680684FF07C51FF
:10209000089002F0D3FA4FF08041099002F0CEFA96
:1020A0000A900F9902F0CAFA0B906348C06A014681
:1020B0000A900B9802F06AFA5F49C8620846406AC3
:1020C0005F490B9002F0CEFC01D25D480AE05A480D
:1020D000406A5C490B9002F0CFFC01D2594801E004
:1020E0005548406A544948620846806A54490B90F2
:1020F00002F0B8FC01D252480AE04F48806A5149C8
:102100000B9002F0B9FC01D24E4801E04A48806AC7
:10211000494988620846C06A49490B9002F0A2FC0E
:1021200001D247480AE04448C06A46490B9002F091
:10213000A3FC01D2434801E03F48C06A3E49C8625F
:102140003848806800210B9002F096FC22D23E486D
:10215000007878B13D4801683D48006802F068FAAF
:102160000A90FFF77FFB3B490B9002F067FA3A4970
:10217000086012E0354801683548006802F058FAF6
:102180000A90FFF76FFB35490B9002F057FA32497E
:10219000086002E00020304908602748406A089043
:1021A000254800680790089902F0F0F94FF07F5138
:1021B000099002F043FA0B901A48006807902648ED
:1021C0000168079802F03AFA0890109902F033FA81
:1021D0002349099002F032FA0A900B9902F0D6F9DD
:1021E000154908630846806A0890084640680790C9
:1021F000089902F0CBF94FF07F51099002F01EFAD6
:102200000B9008484068079013480168079802F04F
:1022100015FA0890119902F00EFA1149099021E07F
:10222000640600200406002058060020A4040020B4
:102230000080894500806D4510060020C3F5C84028
:1022400034FA0EBD34FA0E3DB9040020900400208B
:10225000DC0400209A99993ED80400200000104028
:1022600034FA8E3C02F0EAF90A900B9902F08EF9EA
:10227000FE494863FE4880680990FE480168099855
:1022800002F0DCF90A90129902F0D5F9FA490B90A4
:1022900002F0D4F9F54988630846806B0790F74847
:1022A000C0680690079902F0C9F90990EF48406BA1
:1022B0000590F24880680490059902F0BFF90790F4
:1022C000EE48406880F000400590E848006B014609
:1022D0000490059802F0B2F90690079902F0A8F967
:1022E0000890099902F0A4F90A900F9902F0A6F952
:1022F0000B90E248006801460A900B9802F046F9FC
:10230000DE490860D948406B07900846C0680690CF
:10231000079902F093F90990D448806B0590D7484B
:1023200080680490059902F089F90790CF48006B06
:102330000590D24800680490059902F07FF9069054
:10234000079902F023F90890099902F071F90A90AF
:102350000F9902F073F90B90C848406801460A9043
:102360000B9802F013F9C5494860C048006B07900C
:102370000846C0680690079902F060F90990BB48CA
:10238000806B0590BD4840680490059902F056F9AD
:102390000790B648406B0590B848006804900599CE
:1023A00002F04CF90690079902F042F90890099959
:1023B00002F0ECF80A900F9902F040F90B90AF4848
:1023C000806801460A900B9802F0E0F8AB498860FB
:1023D000A648006B0790084680680690079902F0AF
:1023E0002DF90990A148406B0590A44840680490DD
:1023F000059902F023F907909C48806B05909F484F
:1024000000680490059902F019F90690079902F006
:10241000BDF80890099902F00BF90A900F9902F0A3
:102420000DF90B909548C06801460A900B9802F090
:10243000ADF89249C8600846C06808900846C06870
:102440000790089902F0FAF80A908C488068069084
:102450008A4880680590069902F0F0F8089087484D
:1024600040680490854840680390049902F0E6F8BB
:1024700006908248006804908048006803900499A0
:1024800002F0DCF80590069902F080F807900899B0
:1024900002F07CF809900A9902F078F80B90FFF7A7
:1024A0002DF877490860754800680B900846016868
:1024B0000B9802F0F5F871490860084640680B90E7
:1024C0006F4801680B9802F0EBF86C4948600846C9
:1024D00080680B906A4801680B9802F0E1F8674940
:1024E00088600846C0680B90654801680B9802F048
:1024F000D7F86249C860084680680490084680683A
:102500000390049902F09AF806905C4840680490A1
:102510005A4840680390049902F090F80590069993
:1025200002F034F84FF08041079002F087F84FF046
:102530007E51089002F07FF80A905048C0680590DC
:102540004E4880680490059902F078F807904B484F
:1025500040680590494800680490059902F06EF8BB
:102560000690079902F012F84FF08041089002F0AF
:1025700065F809900A99FEF70DFF42490B9002F0A9
:102580005DF8179908603D48806801903B480068F5
:102590000090019902F052F803903848C068019009
:1025A000364840680090019902F048F8029003997B
:1025B00002F03EF84FF08041049002F03FF80590A1
:1025C00002F0F8F9CDE9060102F0DAFC4FF0C04262
:1025D0002D4BCDE9080102F048F9CDE90A0102F0DE
:1025E00025FA1899086025484068049023484068F7
:1025F0000390049902F022F80690204800680490A5
:102600001E4800680390049902F018F80590069996
:1026100001F0BCFF4FF08041079002F00FF84FF03F
:102620007E51089002F004F80A901448C0680590A2
:10263000124800680490059902F000F807900F48CE
:10264000406880F0004005900C4880680146049086
:10265000059801F0F3FF0690079901F0E9FF4FF0AC
:102660008041089001F0EAFF09900FE01006002079
:1026700004060020D804002034FA8E3C9404002084
:10268000A80400203333654266A64C400A99FEF741
:1026900081FE04490B9001F0D1FF1999086013B035
:1026A00000BD0000333365422DE9F0479CB0814600
:1026B0000E4617460024642103A801F05CFF0020A9
:1026C000019080460025AA222146641C03A842549A
:1026D0002146641C425401222146641C42540022BB
:1026E0002146641C42549D49484601F0A7FF82469A
:1026F00002F047F900B202909DF809202146641CBF
:1027000003A842549DF808202146641C4254934972
:10271000304601F093FF824602F033F900B2029096
:102720009DF809202146641C03A842549DF8082006
:102730002146601CC4B203A842548849384601F0BF
:102740007DFF824602F01DF900B202909DF809203B
:102750002046611CCCB203A90A549DF808202046EB
:10276000611CCCB203A90A549DF807202046611CC5
:10277000CCB203A90A549DF806202046611CCCB2B5
:1027800003A90A549DF805202046611CCCB203A978
:102790000A549DF804202046611CCCB203A90A54B7
:1027A000201FC0B28DF80F0000BF06E003A8405DF7
:1027B000404400F0FF08681CC5B2A542F6DB204685
:1027C000611CCCB203A901F8008000250DE003A82C
:1027D000415D634800F0F0FD00BF4021604800F01B
:1027E00059FE0028F9D0681CC5B2A542EFDB1CB029
:1027F000BDE8F0877FB58EB0002500240026AA2210
:102800002146641C01A842542146641C4254022201
:102810002146641C425400222146641C42549DF807
:1028200039202146641C42549DF838202146641CFE
:1028300042549DF83D202146641C42549DF83C20A2
:102840002046611CCCB201A90A549DF841202046C3
:10285000611CCCB201A90A549DF840202046611C9D
:10286000CCB201A90A549DF845202046611CCCB287
:1028700001A90A549DF844202046611CCCB201A94C
:102880000A549DF859202146601CC4B201A8425444
:102890009DF858202046611CCCB201A90A549DF82D
:1028A0005D202046611CCCB201A90A549DF85C2031
:1028B0002046611CCCB201A90A549DF86120204633
:1028C000611CCCB201A90A549DF860202046611C0D
:1028D000CCB201A90A549DF865202046611CCCB2F7
:1028E00001A90A549DF864202046611CCCB201A9BC
:1028F0000A549DF869202046611CCCB201A90A54F3
:102900009DF868202046611CCCB201A90A54201F02
:10291000C0B28DF8070000BF05E001A8405D30445B
:10292000C6B2681CC5B2A542F7DB2046611CCCB21A
:1029300001A90E5400250DE001A8415D084800F0F2
:102940003BFD00BF4021064800F0A4FD0028F9D05F
:10295000681CC5B2A542EFDB12B070BD0000C842D2
:102960000038014031490143314A1160704770B568
:10297000002100230F22C47804B32D4C246804F4F2
:10298000E064C4F5E064210AC1F10403CA4044785C
:1029900004FA03F18478144021430901254C067898
:1029A000A155047804F01F050124AC4005786D1191
:1029B000AD0005F1E025C5F8004109E0047804F018
:1029C0001F050124AC401C4D0678761145F82640C1
:1029D00070BD1A4A0A400243154B1B1F1A6070470C
:1029E00039B1134A121D12680243114B1B1D1A60A4
:1029F00006E00F4A121D126882430D4B1B1D1A6020
:102A00007047042808D14FF0E021096941F0040122
:102A10004FF0E022116107E04FF0E021096921F059
:102A200004014FF0E0221161704700000000FA0538
:102A30000CED00E000E400E080E100E080FFFF1F1B
:102A400010B50446CC48844208D10121042000F08E
:102A50002DFB0021042000F029FB46E0C7488442FA
:102A600008D10121082000F021FB0021082000F0FE
:102A70001DFB3AE0C248844208D10121102000F039
:102A800015FB0021102000F011FB2EE0BD48844210
:102A900008D10121202000F009FB0021202000F0B6
:102AA00005FB22E0B848844208D10121402000F013
:102AB000FDFA0021402000F0F9FA16E0B348844204
:102AC00008D10121802000F0F1FA0021802000F0DF
:102AD000EDFA0AE0AE48844207D10121801500F0EA
:102AE000E5FA0021A01500F0E1FA10BD10B50121B2
:102AF000084600F0DBFA0021012000F0D7FA10BDF3
:102B00002DE9F04102460025002600200023002484
:102B1000002791F803C00CF00F0591F803C00CF0EA
:102B2000100CBCF1000F03D091F802C04CEA05056F
:102B300091F800C0BCF1000F31D0146800202BE0E8
:102B40004FF0010C0CFA00F3B1F800C00CEA0306D8
:102B50009E4220D183004FF00F0C0CFA03F7BC43C8
:102B600005FA03FC4CEA040491F803C0BCF1280FF9
:102B700006D14FF0010C0CFA00FCC2F814C00AE0B8
:102B800091F803C0BCF1480F05D14FF0010C0CFACD
:102B900000FCC2F810C0401C0828D1D31460B1F862
:102BA00000C0BCF1FF0F34DD546800202EE000F1BE
:102BB000080C4FF0010808FA0CF3B1F800C00CEA59
:102BC00003069E4221D183004FF00F0C0CFA03F74D
:102BD000BC4305FA03FC4CEA040491F803C0BCF1C1
:102BE000280F05D100F1080C08FA0CF8C2F814807F
:102BF00091F803C0BCF1480F07D100F1080C4FF069
:102C0000010808FA0CF8C2F81080401C0828CED33E
:102C10005460BDE8F0814FF6FF71018002218170A0
:102C20000421C17070470246002093680B400BB12D
:102C3000012000E0002070470146886880B270479C
:102C400002460020D3680B400BB1012000E00020B9
:102C500070470146C86880B27047016170474161A2
:102C600070470AB1016100E041617047C16070477F
:102C70004FF480320A438261816182618269826994
:102C8000704702460020434B18684FF68073184087
:102C900040EA021008433F4B186070473E49C86144
:102CA0007047F0B50A46002300240021002500F0FB
:102CB0000046B6F1004F02D1364EF16901E0354EC3
:102CC0007168C0F3034583B200F44016B6F5401FA7
:102CD00008D121F070612F4E766826F070662D4F76
:102CE0007E6012E000F48016B6F5801F06D1032640
:102CF00006FA05F4A14341F0706106E0460D360185
:102D000003FA06F6B14341F0706122B1460D360177
:102D100003FA06F6314300F00046B6F1004F02D147
:102D20001C4EF16101E01B4E7160F0BD30B5002218
:102D30008B071C0F0F2303FA04F2164B08338C1079
:102D400053F824309343134C08348D1044F8253045
:102D500023468C1053F824308C07240F00FA04F417
:102D600023430C4C08348D1044F8253030BD0A49FB
:102D7000DC3108607047000000080140000C014091
:102D8000001001400014014000180140001C0140E7
:102D9000002001400000014000002042DF480068A0
:102DA00040F00100DD49086008464068DC49084001
:102DB000DA49486008460068DA490840D74908609F
:102DC0000846006820F4802008600846406820F427
:102DD000FE0048604FF41F0088607047CF490968C3
:102DE00021F48031CD4A11601146096821F4802117
:102DF0001160B0F5803F03D0B0F5802F0ED106E012
:102E0000C649096841F48031C44A116007E0C349EA
:102E1000096841F4A021C14A116000E000BF00BF71
:102E2000704710B501460022002300204A11012AF4
:102E300002D1BA4C236806E0022A02D1B74C236AB9
:102E400001E0B64C636A01F01F02012494401C406B
:102E50000CB1012000E0002010BD38B5002000902A
:102E60000024002500BF3120FFF7DBFF0546009856
:102E7000401C00900098B0F5A06F01D0002DF2D05A
:102E80003120FFF7CEFF08B1012400E000242046E6
:102E900038BD01460020A14A106820F0F80040EA41
:102EA000C10010607047A0490860704702460020CA
:102EB0009A4B586820F47C1042EA01031843974B60
:102EC0005860704798490866704701460020934A49
:102ED000506820F003000843506070478F484068F6
:102EE00000F00C007047014600208C4A506820F02A
:102EF000F00008435060704701460020874A506840
:102F000020F4E06008435060704701460020834A87
:102F1000506820F4605040EAC1005060704729B109
:102F20007E4A527A02437D4B5A7204E07B4A527ABF
:102F300082437A4B5A7270477B49D8310860704798
:102F400001460020754A506820F440400843506014
:102F500070470021714A20321170704A82F82010A7
:102F6000012802D004280AD104E001216B4A203252
:102F7000117005E00521694A2032117000E000BFA0
:102F800000BF70476949086070476449096A014396
:102F9000624A11627047654944390860704730B52C
:102FA00000210022002400235C4D6D6805F00C0117
:102FB00021B1042905D0082923D105E05C4D056025
:102FC00022E05B4D05601FE0544D6D6805F4701202
:102FD000524D6D6805F48034022505EB92421CB910
:102FE000544D554305600BE04C4D6D6805F40035BC
:102FF0001DB1504D5543056002E04D4D55430560F0
:1030000002E04B4D056000BF00BF444D6D6805F008
:10301000F0010909484D6B5C0568DD4045603F4D96
:103020006D6805F4E061090A434D6B5C4568DD405D
:1030300085603A4D6D6805F46051C90A3E4D6B5C80
:103040004568DD40C560354D6D6805F44041890B2C
:103050003A4D6B5CC568B5FBF3F5056130BD29B130
:103060002E4A526902432D4B5A6104E02B4A5269A1
:1030700082432A4B5A61704729B1284A9269024318
:10308000264B9A6104E0254A92698243234B9A6158
:10309000704729B1214AD2690243204BDA6104E02A
:1030A0001E4AD26982431D4BDA61704729B11B4A1F
:1030B000D2680243194BDA6004E0184AD2688243AE
:1030C000164BDA60704729B1144A12690243134B58
:1030D0001A6104E0114A12698243104B1A61704769
:1030E00012494039086070470F49C86470470B495E
:1030F000C87170470948406A40F0807007494862CB
:10310000704701460020054A92680A400AB1012032
:1031100000E00020704701498872704700100240AB
:103120000000FFF8FFFFF6FE00004242800442422A
:1031300000127A0000093D00E0040020F0040020A5
:1031400010B50446FB48844209D101218803FFF7EA
:10315000ADFF00214FF48040FFF7A8FF32E0F648B2
:10316000844209D101214804FFF7ADFF00214FF44B
:103170000030FFF7A8FF25E0F048844209D1012183
:103180008804FFF7A0FF00214FF48020FFF79BFF8A
:1031900018E0EB48844209D10121C804FFF793FFEE
:1031A00000214FF40020FFF78EFF0BE0E54884423A
:1031B00008D101210805FFF786FF00214FF4801098
:1031C000FFF781FF10BD2DE9F04786B005460E469A
:1031D0000024A24600BFA1460027B08900B100BF6D
:1031E0002F462C8A4CF6FF700440F08804432C8252
:1031F000AC894EF6F3100440B088318908437189D8
:1032000008430443AC81AC8A4FF6FF400440B089C8
:103210000443AC8201A8FFF7C2FEC648874202D130
:10322000DDF810A001E0DDF80CA0A88900F4004052
:1032300040B10AEBCA0000EB0A1031684900B0FB4C
:10324000F1F807E00AEBCA0000EB0A1031688900C8
:10325000B0FBF1F86420B8FBF0F004012009642110
:1032600001FB1089A88900F4004040B1322000EB36
:10327000C900B0FBF1F000F00700044308E0322081
:1032800000EB09106421B0FBF1F000F00F000443E3
:103290002C8106B0BDE8F0874FF416510160002183
:1032A0008180C18001810C21418100218181704791
:1032B00010B502460020108A4FF2FF0318400B8819
:1032C0004C8823438C882343CC88234318431082A3
:1032D00010BD0021018041808180C180704721B1F3
:1032E000828942F40052828104E082894DF6FF73A4
:1032F0001A4082817047F0B503460024002600255D
:10330000002040F66A17B94200D100BF1846C1F349
:10331000421401F01F06012707FA06F5012C01D11E
:103320000C3004E0022C01D1103000E014301AB14E
:1033300007682F43076002E00768AF430760F0BDEE
:103340001AB1838A0B43838202E0838A8B43838290
:103350007047028A4FF6F0731A400282028A0A43CB
:103360000282704782894FF2FF731A4082818289FC
:103370000A438281704721B1828942F00202828130
:1033800004E082894FF6FD731A4082817047028AF9
:103390004FF6DF731A400282028A0A4302827047A4
:1033A00021B1028A42F48042028204E0028A4BF692
:1033B000FF731A4002827047C1F30802828070478F
:1033C00001468888C0F308007047818941F00101F7
:1033D00081817047028BD2B20283028B42EA0122C2
:1033E00002837047028B02F47F420283028B0A43FE
:1033F0000283704721B1828A42F02002828204E077
:10340000828A4FF6DF731A408282704721B1828A26
:1034100042F01002828204E0828A4FF6EF731A4073
:103420008282704721B1828A42F00802828204E0DF
:10343000828A4FF6F7731A408282704721B18289DF
:1034400042F40042828103E08289C2F30E0282814B
:10345000704721B1828A42F40062828204E0828A4B
:103460004FF2FF731A4082827047828A4FF6FB73D5
:103470001A408282828A0A438282704721B1828AFC
:1034800042F00202828204E0828A4FF6FD731A4003
:103490008282704702460020B1F5007F00D100BF54
:1034A00013880B400BB1012000E00020704701F4AD
:1034B0000072B2F5007F00D100BFCA43028070479E
:1034C00070B50246002400230025002040F66A164D
:1034D000B14200D100BFC1F3421501F01F03012624
:1034E00006FA03F3012D02D19689334006E0022D3E
:1034F00002D1168A334001E0968A33400C1201262D
:1035000006FA04F41688344013B10CB1012000E02F
:10351000002070BD10B50022002340F66A14A142BD
:1035200000D100BF0A1201249440A3B2DC430480FE
:1035300010BD000000380140004400400048004039
:10354000004C00400050004010B50446FE48844244
:1035500008D10121C014FFF7A9FD0021E014FFF7F5
:10356000A5FDC4E0B4F1804F08D101210846FFF762
:10357000AAFD00210120FFF7A6FDB8E0F348844230
:1035800008D101210220FFF79EFD00210220FFF754
:103590009AFDACE0EE48844208D101210420FFF7F7
:1035A00092FD00210420FFF78EFDA0E0E94884424F
:1035B00008D101210820FFF786FD00210820FFF730
:1035C00082FD94E0E448844208D101211020FFF7F5
:1035D0007AFD00211020FFF776FD88E0DF48844265
:1035E00008D101212020FFF76EFD00212020FFF7E8
:1035F0006AFD7CE0DA48844208D101214014FFF7DB
:1036000055FD00216014FFF751FD70E0D54884425C
:1036100009D10121C804FFF749FD00214FF4002022
:10362000FFF744FD63E0D048844209D10121080539
:10363000FFF73CFD00214FF48010FFF737FD56E007
:10364000CA48844209D101214805FFF72FFD002116
:103650004FF40010FFF72AFD49E0C548844208D125
:1036600001214020FFF72FFD00214020FFF72BFD17
:103670003DE0C048844208D101218020FFF723FDAE
:1036800000218020FFF71FFD31E0BB48844208D1B4
:1036900001218015FFF717FD0021A015FFF713FD8D
:1036A00025E0B648844209D101210804FFF7FEFC59
:1036B00000214FF48030FFF7F9FC18E0B048844255
:1036C00009D101214804FFF7F1FC00214FF400303B
:1036D000FFF7ECFC0BE0AB48844208D101218804E1
:1036E000FFF7E4FC00214FF48020FFF7DFFC10BD62
:1036F00000220288944B98420ED0994B98420BD0EE
:10370000B0F1804F08D0914B984205D0904B984231
:1037100002D0904B984204D14FF68F731A404B88D9
:103720001A438D4B984207D08C4B984204D04FF6E9
:10373000FF431A40CB881A4302808B8883850B880D
:103740000385814B98420BD0854B984208D08B4B18
:10375000984205D08A4B984202D08A4B984201D1B8
:103760000B7A038601238382704770B50024002200
:103770000023058C4FF6FE7635400584028C838845
:10378000048B4FF68F752C40B51E2C400D882C43B2
:10379000751E2A400D892A434D882A436A4DA84246
:1037A0000BD06F4DA84208D0744DA84205D0744D7F
:1037B000A84202D0734DA84213D14FF6F7752A40A4
:1037C0004D892A434FF6FB752A408D882A434FF6D0
:1037D000FF652B404FF6FF552B408D892B43CD893C
:1037E0002B4383800483CD888586028470BD70B5A9
:1037F000002400220023058C4FF6EF763540058427
:10380000028C8388048B48F6FF752C404FF6FF45E9
:103810002C400D884FF6FF7606EA05252C434FF61F
:10382000DF752A400D8906EA05152A434D8806EA08
:1038300005152A43444DA84202D0494DA8421DD146
:103840004FF67F752A404D894FF6FF7606EA05153B
:103850002A434FF6BF752A408D8806EA05152A438C
:103860004FF6FF352B404FF2FF752B408D8906EA4E
:1038700085052B43CD8906EA85052B438380048388
:10388000CD880587028470BD70B500240022002316
:10389000058C4FF6FF6635400584028C8388848B47
:1038A0004FF68F752C404FF6FC752C400D882C433D
:1038B0004FF6FF552A400D894FF6FF7606EA05259B
:1038C0002A434D8806EA05252A431F4DA84202D007
:1038D000234DA8421DD14FF2FF752A404D894FF666
:1038E000FF7606EA05252A434FF6FF352A408D88E4
:1038F00006EA05252A434EF6FF752B404DF6FF7567
:103900002B408D8906EA05152B43CD8906EA05155E
:103910002B4383808483CD888587028470BD70B5F6
:10392000002200230024058C4EF6FF7635400584E6
:10393000038C8488828B48F6FF752A404FF6FF453A
:103940002A400D8820E00000002C014000040040C7
:1039500000080040000C004000100040001400402F
:1039600000340140004C014000500140005401402F
:1039700000180040001C00400020004000400140B2
:1039800000440140004801404FF6FF7606EA052555
:103990002A434DF6FF752B400D8906EA05352B436A
:1039A0004D8806EA05352B43FA4DA84202D0FA4D60
:1039B000A84208D14BF6FF752C408D894FF6FF7653
:1039C00006EA85152C4384808283CD88A0F8405078
:1039D000038470BD828B4FF2FF331A408283828B47
:1039E0004FF6FF7303EA01231A4382837047F0B551
:1039F0000C461546002200210026078C4EF6FF7C5F
:103A000007EA0C070784828B018C4FF6FF7707EAE1
:103A1000043640F6FF473A404FF6FF7707EA05279E
:103A20003A434FF6FF7707EA03373A43D94FB84294
:103A30000ED0D94FB8420BD0B0F1804F08D0D74F3D
:103A4000B84205D0D64FB84202D0D64FB84206D1C0
:103A50004DF6FF77394046F48057394305E047F685
:103A6000FF57394044F48057394382830184F0BDC5
:103A7000828B4FF6F3731A408283828B0A438283D0
:103A80007047F0B50C461546002200210026078C31
:103A90004FF6FF6C07EA0C070784828B018C4FF608
:103AA000FF7707EA04264FF60C773A404FF6FF7788
:103AB00007EA03172F433A43B64FB8420ED0B64F2A
:103AC000B8420BD0B0F1804F08D0B44FB84205D007
:103AD000B34FB84202D0B34FB84206D14FF6FF57AA
:103AE000394046F48077394305E04FF2FF573940BB
:103AF00044F48077394382830184F0BD028B4FF216
:103B0000FF331A400283028B4FF6FF7303EA01234F
:103B10001A4302837047F0B50C4615460022002177
:103B20000026078C4FF6EF7C07EA0C070784028B10
:103B3000018C4FF6FF7707EA041640F6FF473A403C
:103B40004FF6FF7707EA03373A434FF6FF7707EA66
:103B500005273A438F4FB8420ED08F4FB8420BD053
:103B6000B0F1804F08D08D4FB84205D08C4FB8428D
:103B700002D08C4FB84206D14FF6DF77394046F07D
:103B80001007394305E04FF65F77394044F01007DE
:103B9000394302830184F0BD028B4FF6F3731A4060
:103BA0000283028B0A4302837047F0B50C46154628
:103BB00000220021068C4FF6FE773E400684028BE1
:103BC000018C4FF60C7632407E1C06EA03162E431B
:103BD0003243704EB0420ED06F4EB0420BD0B0F1B7
:103BE000804F08D06D4EB04205D06D4EB04202D02D
:103BF0006C4EB04206D14FF6FD76314044F00106DE
:103C0000314305E04FF6F576314044F0010631438B
:103C100002830184F0BD70B505460C465D488542BF
:103C20000ED05D4885420BD0B5F1804F08D05B487F
:103C3000854205D05A48854202D05A48854200D173
:103C400000E000BF208850B92389A28861882846F7
:103C5000FFF7ABFFE1882846FFF79EFF25E02088AD
:103C600004280AD12389A28861882846FFF753FFD8
:103C7000E1882846FFF742FF17E0208808280AD18C
:103C80002389A28861882846FFF7FBFEE188284641
:103C9000FFF7EEFE09E02389A28861882846FFF736
:103CA000A6FEE1882846FFF795FE70BD2DE9F0419C
:103CB00005460C4600260127608808B9022600E068
:103CC0000026A088012801D1022700E001272088D2
:103CD000A0B92389A28861882846FFF766FFE1889A
:103CE0002846FFF759FF23893A4631462846FFF711
:103CF00012FFE1882846FFF701FF13E02389A2881D
:103D000061882846FFF707FFE1882846FFF7F6FE9F
:103D100023893A4631462846FFF747FFE18828467F
:103D2000FFF73AFFBDE8F0810A884B881A438B8879
:103D30001A43CB881A430B891A434B891A438B8940
:103D40001A43A0F8442070474FF6FF71818000218C
:103D50000180C18041800172704700210180418053
:103D60008180C180018141818181C18170470021B1
:103D700001804180012181800021C1800181704743
:103D80000021018041808180C18001814181818148
:103D900070470000002C0140003401400004004046
:103DA00000080040000C004021B1028842F00102EE
:103DB000028004E002884FF6FE731A4002807047CA
:103DC00031B1B0F8442042F40042A0F8442005E0AC
:103DD000B0F84420C2F30E02A0F8442070471AB194
:103DE00083890B43838102E083898B4383817047FE
:103DF0008182704741EA0203A0F8483070471AB147
:103E000083890B43838102E083898B4383817047DD
:103E100001894FF6F8721140018170470A4600216E
:103E200001894FF68F73194011430181704730B5F6
:103E300004460D4629462046FFF7F0FF208940F052
:103E40000700208130BD2DE9F04104460D4616469D
:103E50001F46602D06D13B46012231462046FFF722
:103E60005AFE05E03B46012231462046FFF79DFE03
:103E700029462046FFF7D2FF208940F00700208125
:103E8000BDE8F08130B50C4600210189C9B24FF67A
:103E9000FF7505EA0325154325432943018130BDFC
:103EA0002DE9F04105460E46174698460024434644
:103EB0003A4631462846FFF7E5FF2C894FF6F87061
:103EC000044044F007044FF68F70044044F070043F
:103ED0002C81BDE8F081F0B504460D4616461F461C
:103EE0003B46324629462046FFF7CCFF208940F466
:103EF00080402081F0BD0185828270470A46002102
:103F000001884FF68F731940114301807047F0B557
:103F10000C4615461E460021002200230189028B13
:103F2000038C4FF6F877394021434FF6FC473A406F
:103F300040F201173A434FF6DD773B404FF6FF77EB
:103F400007EA06172F433B43018102830384F0BD38
:103F50000A460021018B4FF68F73194011430183EC
:103F600070470A460021018B48F6FF7319404FF64F
:103F7000FF7303EA02231943018370470A460021B5
:103F8000818B4FF68F7319401143818370470A4626
:103F90000021818B48F6FF7319404FF6FF7303EA47
:103FA000022319438183704721B1028842F08002C5
:103FB000028004E002884FF67F731A400280704747
:103FC00021B1828842F00402828004E082884FF6A8
:103FD000FB731A408280704721B1828842F0080248
:103FE000828004E082884FF6F7731A40828070471F
:103FF00021B1828842F00102828004E082884FF67B
:10400000FE731A40828070470A460021018B4FF6EA
:10401000F77319401143018370470A460021018B51
:104020004FF2FF7319404FF6FF7303EA022319435F
:10403000018370470A460021818B4FF6F7731940C0
:104040001143818370470A460021818B4FF2FF7331
:1040500019404FF6FF7303EA022319438183704727
:104060000A460021018B4FF6FB731940114301836F
:1040700070470A460021018B4FF6FF3319404FF677
:10408000FF7303EA02231943018370470A460021A4
:10409000818B4FF6FB7319401143818370470A46A9
:1040A0000021818B4FF6FF3319404FF6FF7303EA6F
:1040B00002231943818370470A460021018B4FF682
:1040C0007F7319401143018370470A460021018B19
:1040D000C1F30E014FF6FF7303EA02231943018374
:1040E00070470A460021818B4FF67F7319401143B8
:1040F000818370470A460021818BC1F30E014FF680
:10410000FF7303EA02231943818370470A460021A3
:10411000018C4FF6FD7319401143018470470A4624
:104120000021018C4FF6F773194011430184704749
:104130000A460021018C4FF6DF7319404FF6FF73DA
:1041400003EA02131943018470470A460021018CD7
:104150004FF67F7319404FF6FF7303EA02131943BA
:10416000018470470A460021018C4FF6FF53194025
:104170004FF6FF7303EA02231943018470470A468E
:104180000021018C4FF2FF7319404FF6FF7303EAD1
:1041900002231943018470470A460021018C4DF621
:1041A000FF7319404FF6FF7303EA0233194301848A
:1041B000704730B5002301248C40A3B2048C9C438B
:1041C0000484048C02FA01F5ADB22C43048430BDA2
:1041D00030B5002304248C40A3B2048C9C43048497
:1041E000048C02FA01F5ADB22C43048430BD70B5E5
:1041F0000346002000241846183001258D40ACB23B
:104200001D8CA5431D8409B1082909D100EB61006B
:10421000056825F0700505600568154305600EE02A
:104220000D1FC5F34E052844056825F4E0450560DB
:1042300005684FF6FF7606EA02263543056070BD35
:1042400021B1028842F00202028004E002884FF6A7
:10425000FD731A400280704721B1028842F00402C7
:10426000028004E002884FF6FB731A400280704718
:1042700021B1828842F08002828004E082884FF679
:104280007F731A408280704702884FF6F7731A4096
:10429000028002880A430280704782884FF68F733B
:1042A0001A40828082880A438280704702894FF6D2
:1042B000F8731A40028102890A4302817047028919
:1042C0004FF67F731A40028102890A4302817047C8
:1042D0008184704781857047818670470187704768
:1042E00081877047A0F84010704702884FF6FF435F
:1042F0001A40028002880A43028070470146888E75
:1043000070470146088F70470146888F7047014605
:10431000B1F8400070470146888C70470146088D0F
:10432000704702460020138A0B400BB1012000E0C9
:1043300000207047CA430282704730B50246002011
:1043400000230024158A05EA0103958905EA010482
:1043500013B10CB1012000E0002030BDCA4302823D
:10436000704700000648804706480047FEE7FEE722
:10437000FEE7FEE7FEE7FEE7FEE7FEE7FEE7FEE715
:1043800067440008310100080CB50020019000903E
:104390006C48006840F480306A49086000BF694892
:1043A000006800F4003000900198401C01900098D3
:1043B00018B90198B0F5A06FF1D16248006800F417
:1043C000003010B10120009001E000200090009822
:1043D000012843D15C48006840F010005A49086049
:1043E0000846006820F0030008600846006840F0B6
:1043F00002000860534840685249486008464068D7
:1044000048600846406840F480604860084640685C
:1044100020F47C1048600846406840F4E81048608A
:104420000846006840F08070086000BF454800689A
:1044300000F000700028F9D04248406820F00300E6
:10444000404948600846406840F00200486000BFAC
:104450003C48406800F00C000828F9D10CBD10B5AC
:10446000FFF792FF10BD10B53648006840F001001C
:10447000344908600846406834490840314948607A
:1044800008460068324908402E490860084600681E
:1044900020F4802008600846406820F4FE00486050
:1044A0004FF41F008860FFF7DAFF4FF000602949E2
:1044B000086010BD10B5002100200022214B5B6870
:1044C00003F00C0121B1042906D0082928D107E006
:1044D000214B224C236027E01F4B204C236023E01C
:1044E000184B5B6803F47010164B5B6803F4803262
:1044F000022303EB904022B9194B4343174C23602E
:104500000DE0104B5B6803F4003323B1144B4343BD
:10451000124C236003E0104B4343104C236003E034
:104520000D4B0E4C236000BF00BF064B5B68C3F30E
:1045300003130C4CE15C094B1B68CB40074C236018
:1045400010BD000000100240002002400000FFF8F3
:10455000FFFFF6FE08ED00E000127A00F4040020F0
:1045600000093D00F8040020D2B201E000F8012B60
:10457000491EFBD270470022F6E710B513460A46E3
:1045800004461946FFF7F0FF204610BDF0B480EA5C
:104590000102D40F4200B2EB410F02D2024608469C
:1045A00011464A0042D0C30DDDB2C1F3C752AD1A65
:1045B000202D35DAC1F3160141F4000204B1524254
:1045C000C5F1200602FA06F12A411044B3EBD05F90
:1045D00023D0C4B1012DA0EBC35009DCF0BC4FF0D7
:1045E000004202EAC352DBB200F5000000F078BAE4
:1045F000400000F1807000EBC350A0F1807040EAF1
:10460000D170490009E0490841EAC071A0EBC350EC
:1046100000F50000400800EBC350F0BC00F057BAB2
:104620006142012202EB4101001BF6E7F0BC70473A
:1046300081F00041AAE780F00040A7E780EA01028C
:1046400010B502F00043400022D04A001FD0010EF6
:1046500001EB1261C0F35600C2F3560240F40000B1
:1046600042F40002A0FB022000047F39140400D0B1
:10467000401C50EA124001D44000491EC2B20C0650
:1046800004EBD010401C4008802A02D003E0002038
:1046900010BD20F00100002900DA0020184310BDF1
:1046A00030B480EA010202F0004530F0004221F00F
:1046B000004013D090B1C30DD40DC2F31601C0F366
:1046C0001600E41A41F4000140F400027D349142E6
:1046D00001D3641C00E04900002C02DA30BC002049
:1046E00070474FF400000023914201D3891A03431D
:1046F00040084FEA4101F7D151B1914202D14FF048
:10470000004105E002D24FF0010101E06FF001012C
:1047100003EBC450284430BC00F0D9B92DE9FE4F5A
:10472000804681EA0300C00F0C46009021F0004152
:1047300023F00045B8EB0200A94105D240462146CE
:1047400090461C460B46024623F00040104347D0DB
:10475000270DC7F30A00C3F30A510290401A0190D3
:1047600040286BDAC3F3130040F4801B0098924694
:1047700020B10023D2EB030A63EB0B0B01985946DF
:10478000C0F14002504600F081F906460D46504601
:104790005946019A00F089F910EB080061410024A4
:1047A00087EA115284EAE7731A4340D0009A62B351
:1047B000019A012A4FEA075215DC001B61EB020146
:1047C0004FF0004202EA0752CDE90042001C41F5D9
:1047D000801132462B4600F0BEF903B0BDE8F08FE1
:1047E00040462146F9E7001B61EB0201001C41F540
:1047F000801300185B412018A2F5001747EB030156
:1048000040EAD570B6196D4111E06D084FEA3606E1
:1048100045EAC0754FEA0752001B61EB0201001C1C
:1048200041F5801149084FEA3000001951413246E4
:104830002B4603B0BDE8F04F00F080B9009801228C
:1048400040000023D0EB020263EBE07300982146A6
:104850004FEAE074B8EB000061EB0401E9E783F094
:1048600000435BE781F0004158E72DE9FE4F81EA04
:10487000030404F0004421F0004100944FF0000BC9
:1048800023F0004350EA01045ED052EA03045BD0F7
:10489000C3F30A54C1F30A552C44A4F2F33401942F
:1048A000A0FB0254C1F3130141F48011C3F31303BD
:1048B00043F4801301FB024400FB034E840A970A71
:1048C00044EA815447EA8357A4FB076802958D0A9E
:1048D00005FB07854FEA932C04FB0C542705029D2A
:1048E0004FEA065847EA1637B5EB08056EEB070C9A
:1048F000870E920E47EA811742EA8312A7FB020154
:10490000B6EB0B0164EB00042B0D43EA0C335E188D
:1049100044EB1C50DA465146E7FB0201C5F3130491
:104920004FEA0B3343EA14534FEA0432019C43EA43
:104930000603A4F10C040294009CCDE900B400F03D
:104940000AF903B0BDE8F08F00200146F9E7C10F76
:1049500080EAE0700844CA079623002100F0C0B83E
:104960000EB5C10F80EAE0700844CA07002140F28A
:1049700033438DE80E000A460B4600F0ECF803B016
:1049800000BD00F0004220F00040C10DC0F3160051
:1049900040F400007F2901DA00207047962903DCEB
:1049A000C1F19601C84001E096398840002AF4D050
:1049B0004042704700F0004230F000400AD0C10D84
:1049C00001F56071C0F3160042EA0151C2084007C8
:1049D00011437047002001467047000030B50029A0
:1049E00004DB4FF00044404264EB0101002B04DB88
:1049F0004FF00044524264EB03038B4208BF8242F3
:104A000030BD000030B5002904DB4FF000444042C7
:104A100064EB0101002B04DB4FF00044524264EBD5
:104A20000303994208BF904230BD000001F00043EB
:104A300030B421F0004150EA010206D00A0DA2F57F
:104A40006072C1F31301002A02DC30BC0020704701
:104A5000440F44EAC104C100E01830BC00EBC2506E
:104A600000F035B8002801DBC0F10040002901DB6F
:104A7000C1F1004181427047002801DBC0F10040D4
:104A8000002901DBC1F1004188427047202A04DB84
:104A9000203A00FA02F1002070479140C2F1200351
:104AA00020FA03F3194390407047202A06DBCB1706
:104AB000203A41FA02F043EAE07306E041FA02F3D9
:104AC000D040C2F1200291400843194670470029A6
:104AD000A8BF7047401C490008BF20F00100704784
:104AE00010B4B0FA80FC00FA0CF050EA010404BFE4
:104AF00010BC704749B1CCF1200421FA04F411FA3A
:104B00000CF118BF012121430843A3EB0C01CB1D7D
:104B10004FEA00614FEA102042BF002010BC7047EE
:104B200000EBC35010440029A4BF10BC7047401CC8
:104B3000490008BF20F0010010BC704710B5002BE1
:104B400008DA401C41F1000192185B411A4301D17F
:104B500020F0010010BD2DE9F04D92469B4611B1A9
:104B6000B1FA81F202E0B0FA80F220329046FFF70B
:104B70008DFF04460F4640EA0A0041EA0B01534606
:104B80005A46084313D0114653EA010019D0C8F120
:104B90004002504600F0C6F805460E4650465946BB
:104BA0004246FFF773FF084305D0012004E020468A
:104BB0003946BDE8F08D0020054346EAE0762C43F7
:104BC00037430A986305E40AA0EB08000022FD0AB7
:104BD00044EA47540A3002D500200146E9E70105BE
:104BE00010196941DDE9084500196941BDE8F04D3A
:104BF000A4E72DE9F04D81EA030404F0004B21F015
:104C0000004514464FF0000A23F0004150EA050227
:104C100020D054EA01021DD0C5F30A570246C5F35D
:104C20001303C1F31300C1F30A5640F4801543F493
:104C30008013A7EB0608101BD64608F2FD3873EB6D
:104C4000050002D308F1010801E092185B41B8F1B8
:104C5000000F03DA00200146BDE8F08D00204FF47C
:104C60008011064684460EE0171B73EB050705D33B
:104C7000121B63EB050306434CEA010C49084FEA9B
:104C8000300092185B4150EA0107EDD152EA03006F
:104C900012D082EA040083EA0501084305D0101B04
:104CA000AB4106D20122002306E000224FF0004370
:104CB00002E06FF0010253101AEB06004CEB0851B2
:104CC00010EB0A0041EB0B01BDE8F04DFFF736BFDA
:104CD00070B521F0004303430CD0C1F30A55002402
:104CE000D5EB040564EB0403D617AD1AB34102DB20
:104CF0000020014670BD201841EB025170BD00003C
:104D0000064C074D06E0E06840F0010394E8070018
:104D100098471034AC42F6D3FBF70EFA98520008CD
:104D2000B8520008202A04DB203A21FA02F00021C0
:104D3000704721FA02F3D040C2F1200291400843AB
:104D4000194670472DE9F04D00231A461B1A8A4177
:104D500003DB00200146BDE8F08DC1F30A52C1F328
:104D6000130141F480154FF0000BD10702D1001858
:104D70006D41521E0027044640F2FF11384601EBF8
:104D8000620A3E468046024600204FF48011FFF73B
:104D9000C9FFC2197141BB1846EB0100B4EB030C0B
:104DA00075EB000C04D3E41A65EB000517460E46BC
:104DB000241908F101006D4180463428E3DDF9191A
:104DC00046EB0600091BA84103D24FF0FF32134601
:104DD00001E0002213461BEB070046EB0A51BDE839
:104DE000F04DFFF7ABBE70B58C1810F8015B15F0F5
:104DF000070301D110F8013B2A1106D110F8012B4D
:104E000003E010F8016B01F8016B5B1EF9D12B0771
:104E100005D40023521E0DD401F8013BFAE710F827
:104E2000013BCB1A921C03E013F8015B01F8015B14
:104E3000521EF9D5A142D8D3002070BD014A0249C3
:104E400000F08CB81505000808050020490050EA5C
:104E5000C12018BF04204A0D18BF40F0010040F2E5
:104E6000FF72B2EB515F08BF40F00200012808BF9B
:104E7000052070472DE9F0414F1E00EBC7010446A5
:104E8000D1E9000115461E4637F006020DD02A462C
:104E90003346FFF7EAFC7F1E04EBC703D3E9002388
:104EA000FFF73CFC37F00602F1D1022F25D0042F8A
:104EB00013D0062F18BFBDE8F0812A463346FFF70E
:104EC000D4FCD4E90A23FFF729FC2A463346FFF72E
:104ED000CCFCD4E90823FFF721FC2A463346FFF730
:104EE000C4FCD4E90623FFF719FC2A463346FFF732
:104EF000BCFCD4E90423FFF711FC2A463346FFF734
:104F0000B4FCD4E90223FFF709FC2A463346FFF735
:104F1000ACFCD4E90023BDE8F041FFF7FFBB000083
:104F2000024A00201107FFF7D3BE000001FDFFFF7A
:104F300002E008C8121F08C1002AFAD17047704762
:104F4000002001E001C1121F002AFBD170470000C0
:104F500001490860704700000C0500202DE9F04170
:104F600016460F460446002503E03946B047641C48
:104F70006D1C20780028F8D12846BDE8F08100009B
:104F80002DE9F04D904F21F0004A86B005460C46C1
:104F9000BA4530DBAAEB070028430CD08B4882458A
:104FA00001DC1CD1DDB106B02846BDE8F04D4FF064
:104FB0000102FFF78DBE864A864B2846FFF755FC57
:104FC00007460E46844A854B28462146FFF74DFC8E
:104FD00006B03A463346BDE8F04DFFF79FBB0120CF
:104FE000FFF7B6FF06B00022BDE8F04D13461046AD
:104FF0001146FFF7FEBD7A48824542DABAF1795F81
:105000000BDA2846FFF722FF042808BFFFF788FFC6
:10501000284606B02146BDE8F08D2A460B461046CC
:10502000FFF723FC834602466E480E460B460621D8
:105030007844FFF71FFF5A463346FFF716FC8046B9
:1050400069488A465A46334604217844FFF712FFDE
:105050005A463346FFF709FC00223B46FFF75EFB4A
:1050600002460B4640465146FFF7C3FD2A462346FB
:10507000FFF7FBFB06B02A462346BDE8F04DFFF7DD
:105080004DBB284624F0004100223D463B46FFF739
:10509000E9FB4FF0FF32FFF71BFE0646024653487E
:1050A0000F460B4606217844FFF7E4FE32463B46A6
:1050B000FFF7DBFBCDE900014D4832463B460421BA
:1050C0007844FFF7D7FE32463B46FFF7CEFB00227F
:1050D0002B46FFF723FB834602913046394600F00A
:1050E0008DF8804643480D46504517DCDDE9000148
:1050F0005A46029BFFF77DFD42462B46FFF7B5FB64
:1051000042462B46FFF70AFB0122FFF7E1FD304A3A
:10511000304BFFF7A4FB304A304B4CE04FF0000A15
:1051200052460B464046FFF7F9FACDE903105246C6
:105130002B4610461946FFF798FB32463B46FFF7D1
:1051400091FBDDE90332FFF754FD06460F46DDE92A
:1051500000015A46029BFFF74CFD83460091012255
:1051600030463946FFF7B4FD194A1A4BFFF77AFB70
:1051700006460F46012240462946FFF7A9FD5A463A
:10518000009BFFF772FB32463B46FFF768FB074682
:105190000E46012250462946FFF79AFD0E4DDFF8D4
:1051A00058802A464346FFF75DFB3A463346FFF7F1
:1051B00059FB2A464346FFF755FB002CD8BF81F028
:1051C000004106B0BDE8F08D0000F03F0000F07F28
:1051D000075C143326A6913C182D4454FB21F93F5B
:1051E0000000E03F140200002A0200009E010000BF
:1051F000B40100003333EF3FFB21E93F2DE9F041DB
:1052000006460F46FFF79EFD04000D4618BF01201D
:10521000284320F00040C0F17F6000F1E040C00F63
:105220000ED0301C18BF0120384320F00040C0F1E0
:105230007F6000F1E040C00F04BF0120FFF788FE4F
:1052400020462946BDE8F081555555555555C53F71
:105250007D6FEB0312D6D4BF5544880E55C1C93FAC
:105260003B8F68B52882A4BF88B20175E0EF493F43
:1052700009F7FD0DE13D023F4B2D8A1C273A03C083
:10528000C88A599CE52A004059018D1B6C06E6BF6F
:1052900082922EB1C5B8B33FB8520008000000207A
:1052A00010050000E64D0008E85600081005002033
:1052B000F0050000404F0008012C0558787D8B3A1E
:1052C000175680803BD37F10183C77BE403CCF7D83
:1052D000803C5B9BA03CA6B7C03C6ED2E03CB7755F
:1052E00000FF003D3581103D918B203DAB94303D5A
:1052F000609C403D92A2503D25A7603DF1A9703DC4
:105300006F55803DE354883D4753903D8C50983D08
:105310009F4CA03D7247A83DF740B03D1B39B83DBA
:10532000D22FC03D0C25C83DB218D03DC60AD83D8D
:105330002DFBDF3DD9E9E73DB0D6EF3DBEC1F73DDE
:10534000DBAAFF3D04C9033E95BB073E20AD0B3EE3
:10535000979D0F3EF58C133E397B173E56681B3EDA
:105360003E541F3EF83E233E7728273EB4102B3E86
:10537000A1F72E3E45DD323E93C1363E7DA43A3E36
:105380000A863E3E2766423ED844463E12224A3EA8
:10539000C7FD4D3EFED7513EAFB0553EC687593E84
:1053A0004B5D5D3E3731613E7C03653E1AD4683EFD
:1053B0000AA36C3E4770703EC83B743E8805783E39
:1053C00086CD7B3EB5937F3E0EAC813E538D833EB2
:1053D000AE6D853E164D873E8D2B893E0F098B3E67
:1053E0009900FF00E58C3E2BC18E3EC19B903E5440
:1053F00075923EE94D943E7B25963E07FC973E8B89
:10540000D1993E02A69B3E6F799D3ECD4B9F3E1C9F
:105410001DA13E57EDA23E7FBCA43E8D8AA63E84D0
:1054200057A83E6223AA3E23EEAB3EC2B7AD3E452F
:1054300080AF3EA447B13EE20DB33EF9D2B43EE99F
:1054400096B63EB159B83E4F1BBA3EC2DBBB3E07D3
:105450009BBD3E1E59BF3E0416C13EBCD1C23E3F5D
:105460008CC43E8E45C63EA4FDC73E89B4C93E33BA
:105470006ACB3EA41ECD3EDAD1CE3ED583D03E943B
:1054800034D23E18E4D33E5A92D53E603FD73E21F7
:10549000EBD83EA395DA3EE33EDC3EE1E6DD3E9A04
:1054A0008DDF3E0D33E13E3AD7E23E227AE43EC53F
:1054B0001BE63E1BBCE73E2F5BE93EF7F8EA3E7673
:1054C00095EC3EA930EE3E93CAEF3E3563F13E8641
:1054D000FAF23E8F90F43E4925F63EB9B8F73EDA2F
:1054E0004AF910143EAFDBFA3E386BFC3E71F9FD11
:1054F0003E5A86FF3EFC8800FF003F234E013FA23C
:1055000012023F7BD6023FAC99033F365C043F1743
:105510001E053F51DF053FE39F063FCE5F073F1269
:105520001F083FADDD083FA29B093FEF580A3F949B
:10553000150B3F93D10B3FE98C0C3F9A470D3FA2CF
:10554000010E3F03BB0E3FBF730F3FD32B103F41F4
:10555000E3103F089A113F2A50123FA405133F79E8
:10556000BA133FA86E143F3322153F18D5153F5785
:1055700087163FF138173FE7E9173F389A183FE79A
:1055800049193FEFF8193F55A71A3F18551B3F37E8
:10559000021C3FB3AE1C3F8E5A1D3FC4051E3F5A2E
:1055A000B01E3F4E5A1F3FA103203F52AC203F6325
:1055B00054213FD3FB213FA4A2223FD548233F677C
:1055C000EE233F5A93243FAD37253F63DB253F7AD7
:1055D0007E263FF420273FD2C2273F1364283FB7DF
:1055E00004293FBFA4293F2C442A3FFEE22A3F332F
:1055F000812B3FD11E2C3FD238CFBB2C3F3C582DA6
:105600003F0CF42D3F438F2E3FE1292F3FE9C32F5D
:105610003F595D303F33F6303F758E313F212632A2
:105620003F39BD323FBB53333FA9E9333F027F349B
:105630003FC713353FF9A7353F993B363FA6CE36D6
:105640003F2161373F0BF3373F6484383F2E1539D4
:105650003F65A5393F0F353A3F2AC43A3FB4523B24
:105660003FB3E03B3F226E3C3F06FB3C3F5D873D46
:105670003F26133E3F679E3E3F1A293F3F44B33FBC
:105680003FE43C403FF9C5403F864E413F89D6410B
:105690003F065E423FFAE4423F676B433F4FF143B0
:1056A0003FB076443F8CFB443FE27F453FB4034626
:1056B0003F0187463FCB09473F138C473FD70D48F3
:1056C0003F198F483FDD0F4904E1DA8010013E2D7C
:1056D000010203040410090607080902040608ACC5
:0856E000A24A041C29188100F4
:0400000508000131BD
:00000001FF
