:020000040800F2
:10000000D00B0020254C0008010B0008030B000852
:10001000070B00080B0B00080F0B00080000000086
:10002000000000000000000000000000130B0008AA
:10003000150B000800000000170B0008190B000842
:100040003F4C00083F4C00083F4C00083F4C000864
:100050003F4C00083F4C00083F4C00083F4C000854
:100060003F4C00083F4C00083F4C00083F4C000844
:100070003F4C00083F4C00083F4C00083F4C000834
:100080003F4C00083F4C00083F4C00083F4C000824
:100090003F4C00083F4C00083F4C00083F4C000814
:1000A0003F4C00083F4C00083F4C00083F4C000804
:1000B000610B00083F4C00083F4C00083F4C000813
:1000C0003F4C00083F4C00083F4C00083F4C0008E4
:1000D0003F4C00081B0B00083F4C00083F4C000839
:1000E0003F4C00083F4C00083F4C00083F4C0008C4
:1000F0003F4C00083F4C00083F4C00083F4C0008B4
:100100003F4C00083F4C00083F4C00083F4C0008A3
:100110003F4C00083F4C00083F4C00083F4C000893
:100120003F4C00083F4C00083F4C00083F4C000883
:10013000DFF80CD005F05AFA00480047190800080B
:10014000D00B002010B5002427E0D8A005F0ECFA71
:10015000DF488088DF490880DD48C0884880DC4867
:100160000089A0F6FF7000B288800846B0F9001040
:10017000D9A005F0D9FAD748B0F90210DBA005F0F4
:10018000D3FAD448B0F90410DDA005F0CDFAE1A00F
:1001900005F0CAFA0020E8490870E748007801280D
:1001A000D3D024E0E5A005F0BFFAC9484089EC4966
:1001B0000880C74880894880C548C089888008462B
:1001C000B0F90010E7A005F0AFFAE548B0F9021069
:1001D000E9A005F0A9FAE248B0F90410EBA005F097
:1001E000A3FAEFA005F0A0FA0020F6490870F54840
:1001F00000780128D6D0F4480078012877D1F34858
:10020000006810B9F2A005F08FFAFA48B0F90000C2
:10021000002803DDF748B0F9000003E0F548B0F925
:1002200000004042B0F57A7F1FDCF248B0F90200CE
:10023000002803DDEF48B0F9020003E0ED48B0F913
:1002400002004042B0F57A7F0FDCEA48B0F90400C2
:10025000002803DDE748B0F9040003E0E548B0F901
:1002600004004042B0F57A7F00DD10BD00244CE070
:10027000E048B0F90000E049B1F90010884204DB21
:10028000DC480088DC4908800BE0DA48B0F900005F
:10029000DA49B1F90010884203DCD6480088D74912
:1002A0000880D448B0F90200D349B1F9021088425D
:1002B00004DBD0484088D04948800BE0CD48B0F9F5
:1002C0000200CE49B1F90210884203DCC9484088D7
:1002D000CA494880C748B0F90400C749B1F90410B9
:1002E000884205DBC3488088C34988800CE058E019
:1002F000C048B0F90400C149B1F90410884203DCD8
:10030000BC488088BD498880641C032CB0DBAF48A2
:1003100001680068401CAD4A1060B1F5C87F40DD3F
:10032000002011460860A8490870B349B1F90010CF
:10033000B24AB2F90020881800EBD071491009B216
:10034000AF4A1180AC49B1F90210AC4AB2F90220AF
:10035000881800EBD071491009B2A94A5180A6490A
:10036000B1F90410A54AB2F90420881800EBD07145
:10037000491009B2A24A91801046B0F90010A1A01C
:1003800005F0D2F99E48B0F90210A3A005F0CCF90F
:100390009B48B0F90410A5A005F0C6F9A8A005F087
:1003A000C3F900BF61E72DE9F0479CB081460E46D6
:1003B00017460024642103A804F03DFD00200190AD
:1003C00080460025AA222146641C03A842542146E7
:1003D000641C425401222146641C425400222146DE
:1003E000641C42549F49484604F088FD824604F04C
:1003F00028FF00B202909DF809202146641C03A842
:1004000042549DF808202146641C425495493046C8
:1004100004F074FD824604F014FF00B202909DF8CF
:1004200009202146641C03A842549DF80820214657
:10043000601CC4B203A842548A49384604F05EFDE9
:10044000824604F0FEFE00B202909DF8092020468C
:10045000611CCCB203A90A549DF808202046611CF7
:10046000CCB203A90A549DF807202046611CCCB2E7
:1004700003A90A549DF806202046611CCCB203A9AA
:100480000A549DF805202046611CCCB203A90A54E9
:100490009DF804202046611CCCB203A90A54201FF9
:1004A000C0B28DF80F0000BFE5E000000D0A2D2D51
:1004B0002D2D2D2D4163632043616C69627261743F
:1004C00065202D2D2D2D737472617274210D0A001B
:1004D000500500200C0000200D0A4163635F585F47
:1004E0004F66667365743A25640000000D0A416327
:1004F000635F595F4F66667365743A256400000058
:100500000D0A4163635F5A5F4F66667365743A25EF
:10051000640000000D0A2D2D2D2D2D2D416363202B
:1005200043616C696272617465202D2D2D2D656E9D
:1005300064210D0A00000000070000200D0A2D2D87
:100540002D2D2D2D47796F2043616C696272617486
:1005500065202D2D2D2D737472617274210D0A008A
:10056000120000200D0A47796F5F585F4F6666736F
:1005700065743A25640000000D0A47796F5F595F82
:100580004F66667365743A25640000000D0A47796A
:100590006F5F5A5F4F66667365743A2564000000AA
:1005A0000D0A2D2D2D2D2D2D47796F2043616C695E
:1005B0006272617465202D2D2D2D656E64210D0AEA
:1005C0000000000008000020090000202C0000208E
:1005D0000D0A2D2D2D2D2D2D4D61672043616C6948
:1005E0006272617465202D2D2D2D73747261727489
:1005F000210D0A0050000020180000201E000020DD
:10060000240000200D0A4D61675F585F4F666673D6
:1006100065743A25640000000D0A4D61675F595FFB
:100620004F66667365743A25640000000D0A4D61DB
:10063000675F5A5F4F66667365743A256400000011
:100640000D0A2D2D2D2D2D2D4D61672043616C69D7
:100650006272617465202D2D2D2D656E64210D0A49
:10066000000000000000C84203A8405D404400F0C4
:10067000FF08681CC5B2A542F6DB2046611CCCB25F
:1006800003A901F8008000250DE003A8415DFE48A4
:1006900003F0F2FA00BF4021FB4803F05BFB0028A7
:1006A000F9D0681CC5B2A542EFDB1CB0BDE8F087ED
:1006B0007FB58EB0002500240026AA222146641CA6
:1006C00001A842542146641C425402222146641C63
:1006D000425400222146641C42549DF83920214690
:1006E000641C42549DF838202146641C42549DF8F5
:1006F0003D202146641C42549DF83C202046611C4C
:10070000CCB201A90A549DF841202046611CCCB20C
:1007100001A90A549DF840202046611CCCB201A9D1
:100720000A549DF845202046611CCCB201A90A5408
:100730009DF844202046611CCCB201A90A549DF8C2
:1007400059202146601CC4B201A842549DF858208B
:100750002046611CCCB201A90A549DF85D202046B8
:10076000611CCCB201A90A549DF85C202046611C92
:10077000CCB201A90A549DF861202046611CCCB27C
:1007800001A90A549DF860202046611CCCB201A941
:100790000A549DF865202046611CCCB201A90A5478
:1007A0009DF864202046611CCCB201A90A549DF832
:1007B00069202046611CCCB201A90A549DF868202A
:1007C0002046611CCCB201A90A54201FC0B28DF88A
:1007D000070000BF05E001A8405D3044C6B2681CB8
:1007E000C5B2A542F7DB2046611CCCB201A90E546C
:1007F00000250DE001A8415DA34803F03DFA00BFCC
:100800004021A14803F0A6FA0028F9D0681CC5B21F
:10081000A542EFDB12B070BD8AB000BF00F072FBE2
:1008200000F062FA00F054FB00F0D2FB00F0BBFBDA
:1008300000F00FFC142001F0F5F800F09FFB00F031
:1008400080FB92A004F070FF9A489B4948639B4943
:10085000994881639A49C1634FF0424096490864C0
:100860009849954841649849816447E197480078E0
:10087000012802D100209549087095480078012888
:1008800002D100209249087092480078012802D1D4
:100890000020904908709048007801287DD1002000
:1008A0008D49087000F0B4FF00F09FFF8B4800787E
:1008B000012800D022E18049B1F9040004F0A7FC2E
:1008C00005467D48416B284604F012FB044604F0BF
:1008D000B8FC00B278498880B1F9060004F097FCB2
:1008E00005467548816B284604F002FB044604F077
:1008F000A8FC01B27048C1800146B1F9080004F0BB
:1009000086FC05466C48C16B284604F0F1FA0446A3
:1009100004F097FC01B2684801810146B1F90A0070
:1009200004F075FC05466448016C284604F0E0FAC2
:10093000044604F086FC00B25F494881B1F90C001E
:1009400004F065FC05465C48416C284604F0D0FA8A
:10095000044604F076FC01B2574881810146B1F9A2
:100960000E0004F054FC05465348816C284604F000
:10097000BFFA044604F065FC01B24F48C18101464C
:10098000B1F90A0004F043FC0446554904F0B6FAF4
:1009900049498862B1F90C0000E05EE004F037FCE0
:1009A00004464F4904F0AAFA4349C862B1F90E005F
:1009B00004F02DFC04464A4904F0A0FA3E490863BD
:1009C000B1F9080004F023FC05463B49B1F90600E3
:1009D00004F01DFC06463849B1F9040004F017FC88
:1009E000044607A808A909AACDE901650094CDE944
:1009F000032105903048036BC26A816A394801F0CF
:100A000085FD3949886A04F01CFC04B23649486AFD
:100A100004F017FC05B23449086A04F012FC06B26F
:100A20002548B0F90E00CDE90265049401902248F2
:100A3000B0F90C00204F0090B7F90A30B7F9082040
:100A4000B7F90610B7F90400FFF732FEDDE9072118
:100A50000998FFF7A8FC00F07BFA244800780128E9
:100A600004D1FFF76FFB0020204908702048007870
:100A7000012802D100201E4908701E480078012874
:100A80003BD100201B4937E0003801402D2D2D2D92
:100A90002D2D2D2D2D2D2D2D2D2D2D2D2D2D2D466D
:100AA0003120414E4F20494D552E2E2E2E2E0D0A0F
:100AB000000000000000E042500500200000B642A7
:100AC000000010C30000E841000060C100000020E9
:100AD0000100002002000020030000200A00002086
:100AE00098FA793D0AD7233C5000002004000020EA
:100AF0000500002006000020087000BFB6E60000D8
:100B0000704700BFFEE700BFFEE700BFFEE700BF83
:100B1000FEE7704770477047704710B540F22551A7
:100B20004A4803F02DF9D0B14848001D0088C4B2EE
:100B3000412C03D101204649087010E0472C03D115
:100B40000120444908700AE04D2C03D1012042499C
:100B5000087004E0492C02D101204049087010BD02
:100B600010B50121880704F048F800286DD0012154
:100B7000880704F053F83A480068401C3849086078
:100B800038480068401C3749086037480068401CF6
:100B90003549086035480068401C344908603448CD
:100BA0000068401C3249086032480068401C3149E6
:100BB000086031480068401C2F49086028480068D8
:100BC000012805DB00202649086001202B49087018
:100BD000244800680A2805DB00202249086001201B
:100BE00027490870204800680F2805DB00201E49AF
:100BF00008600120234908701C480068142805DBA0
:100C000000201A49086001201F4908701848006830
:100C1000322805DB00201649086001201B490870B6
:100C200014480068642805DB002012490860012090
:100C30001749087010480068B0F57A7F05DB00207E
:100C40000D49086001201349087010BD00380140AB
:100C50000700002008000020090000200A000020F2
:100C60003000002034000020380000203C0000202C
:100C70004000002044000020480000200000002028
:100C800001000020020000200300002004000020DA
:100C900005000020060000202DE9F04107460D4622
:100CA000164600240CE0295D384602F0E5FF601C82
:100CB00084B200BF4021384603F04CF80028F9D038
:100CC000B442F0DBBDE8F08170B504460D46E1B2F8
:100CD0008A4802F0D1FF00BF4021884803F03AF86B
:100CE0000128F9D1204670BD00B585B0012144F23C
:100CF000040002F021FE4FF40070ADF8100018203F
:100D00008DF8130003208DF8120004A97C4802F02E
:100D100057FB4FF48060ADF8100004208DF81300ED
:100D200004A9774802F04CFB4FF4E130009000201A
:100D3000ADF80400ADF80600ADF80800ADF80C0001
:100D40000C20ADF80A0069466C4802F09CFE0122B6
:100D500040F22551694802F02EFF0121674802F058
:100D60001EFF05B000BDF0B503460D461646002730
:100D700029460A2E03D0002008702846F0BD33B95A
:100D8000302001F8010B002008702846F6E7002B00
:100D900003DA2D2001F8010B5B4242F210720DE0E4
:100DA00093FBF2F404B937B104F1300001F8010B00
:100DB00004FB123301270A2092FBF0F2002AEFDC39
:100DC000002008702846D9E70FB470B586B00646F3
:100DD0000CA8019074E00B9800785C281CD10B984B
:100DE000401C0B9000786E2809D072280FD10D217D
:100DF000304602F041FF0B98401C0B900BE00A219B
:100E0000304602F039FF0B98401C0B9003E00B9822
:100E1000401C0B9000BF49E00B980078252840D17A
:100E20000B98401C0B900078642818D0732833D19D
:100E3000019810C801900BE02178304602F01CFFA9
:100E400000BF4021304602F085FF0028F9D0641C25
:100E500020780028F0D10B98401C0B9020E00198DE
:100E600020C801900A2202A92846FFF77CFF02ACA5
:100E70000BE02178304602F0FFFE00BF40213046F3
:100E800002F068FF0028F9D0641C20780028F0D117
:100E90000B98401C0B9003E00B98401C0B9000BF7C
:100EA00004E00B980178304602F0E6FE0B98401CF7
:100EB0000B9000BF4021304602F04CFF0028F9D0D3
:100EC0000B980078002886D106B070BC5DF814FB42
:100ED00008B54FF4E06002F0A5F925208DF8000078
:100EE00001208DF8010000208DF8020001208DF80E
:100EF0000300684602F09BF908BD0000003801407D
:100F00000008014008B50121102002F015FD102055
:100F10008DF803004002ADF8000003208DF80200B8
:100F20006946154802F04CFA4FF40051124802F09D
:100F3000F4FA08BD10B54FF400510F4802F0EDFA75
:100F400010BD10B54FF400510B4802F0E8FA10BD87
:100F500010B54FF40051084802F0D2FA28B94FF406
:100F60000051054802F0D9FA04E04FF4005102485C
:100F700002F0D5FA10BD00000010014010B50121AB
:100F8000084602F0E6FC0121880703F06DFB10BD66
:100F900010B500214FF0804003F066FB00210120D6
:100FA00002F0D7FC10BD08B54FF4E06002F03AF94A
:100FB0001C208DF8000000208DF8010003208DF822
:100FC000020001208DF80300684602F030F908BDE8
:100FD0000EB50121084602F0BCFC4FF0804002F043
:100FE00013FF0920ADF8040041F61F40ADF80000E2
:100FF0000020ADF80600ADF8020069464FF08040D1
:1010000002F0D6FF0121880703F0F4FD012211460A
:10101000900703F044FB0121880703F025FB002122
:10102000012002F096FC0EBD00BF00BF00BF00BF54
:1010300000BF00BF00BF00BF00BFFD48007838B947
:101040000F2000BF0100A0F10102D0B2FAD100BF11
:10105000704708B50121082002F06EFCC020ADF8F1
:10106000000010208DF8030003208DF8020069466F
:10107000F04802F0A5F908BD00B5EE48006820F080
:101080007040EC4908600846006840F04050086035
:101090008020E8491031086040200860FFF7C4FF55
:1010A000E4480830006808B9012000E0002000F0A2
:1010B000800008B1002000BD8020DE4914310860A6
:1010C000FFF7B2FFDB480830006800F0800008B18D
:1010D0000020F0E78020D74914310860FFF7A4FF13
:1010E0000120E8E700B5D348006820F07040D149FE
:1010F00008600846006840F0405008604020CD4934
:1011000014310860FFF790FF8020CA49143108604D
:10111000FFF78AFF4020C74910310860FFF784FFBE
:101120008020C44910310860FFF77EFF00BD00B584
:101130004020C04914310860FFF776FFBD480068C1
:1011400020F07040BB4908600846006840F04050FD
:1011500008608020B74914310860FFF765FF402020
:10116000B44910310860FFF75FFF4020B1491431E6
:101170000860FFF759FF00BD00B54020AD491431AC
:101180000860FFF751FFAB48006820F07040A949A4
:1011900008600846006840F0405008608020A5497B
:1011A00010310860FFF740FF4020A249103108606D
:1011B000FFF73AFF40209F4914310860FFF734FFE2
:1011C00000BD00B500239B48006820F0704099499D
:1011D00008600846006840F00040086040209549DB
:1011E00014310860FFF720FF802092491031086019
:1011F000FFF71AFF40208F4910310860FFF714FFF6
:1012000007E0581CC3B2322B03DDFFF76BFF012050
:1012100000BD88480830006800F080000028F0D148
:101220004020844914310860FFF7FEFE0020EFE7FC
:1012300010B5034608247F48006820F070407D49BF
:1012400008600846006840F0405008601BE04020FD
:10125000784914310860FFF7E7FE03F0800020B101
:10126000802074491031086003E0802071491431F6
:1012700008605806030EFFF7D7FE40206D49103175
:101280000860FFF7D1FE2000A4F10101CCB2DED14D
:10129000402068491431086010BD30B50446082567
:1012A00000236448006820F07040624908600846E6
:1012B000006840F00040086080205E4910310860FE
:1012C00015E05806030E40205A4914310860FFF714
:1012D000ABFE4020574910310860FFF7A5FE554886
:1012E0000830006800F0800008B143F001032800D6
:1012F000A5F10101CDB2E4D140204E49143108607E
:1013000014B1FFF714FF01E0FFF736FF184630BDB8
:1013100070B504460D461646FFF7AEFE6106080E90
:10132000FFF786FFFFF74DFF18B1FFF7DBFE012047
:1013300070BD2846FFF77CFFFFF743FF3046FFF7FD
:1013400077FFFFF73EFFFFF7CDFE0020F0E770B517
:1013500004460D461646FFF78FFE6106080EFFF79E
:1013600067FFFFF72EFF18B1FFF7BCFE012070BD2D
:101370002846FFF75DFFFFF724FFFFF77DFE012101
:1013800001EB4401C8B2FFF753FFFFF71AFF00203B
:10139000FFF783FF3070FFF7A5FE0020E7E7F0B509
:1013A00005460E4617461C46FFF766FE6906080E00
:1013B000FFF73EFFFFF705FF18B1FFF793FE01208F
:1013C000F0BD3046FFF734FFFFF7FBFE05E014F8F1
:1013D000010BFFF72DFFFFF7F4FE3800A7F1010125
:1013E000CFB2F4D1FFF77EFE0020E9E7F0B5064664
:1013F0000F4614461D46FFF73FFE7106080EFFF725
:1014000017FFFFF7DEFE18B1FFF76CFE0120F0BDFD
:101410003846FFF70DFFFFF7D4FEFFF72DFE012141
:1014200001EB4601C8B2FFF703FFFFF7CAFE11E068
:101430004C000020000C0140012C04D10020FFF7DB
:101440002CFF287003E00120FFF727FF28706D1C98
:10145000601EC4B2002CEFD1FFF744FE0020D6E797
:1014600010B501220A210C20FFF752FF08B101201C
:1014700010BD0020FCE77EB50091019202939DE82B
:10148000700080E870007EBD002000BF0146401C57
:1014900042F210729142F9D370471FB50020D5492E
:1014A00008706A4603210C20FFF751FF0DF101027D
:1014B00004210C20FFF74BFF9DF800009DF8011060
:1014C00040EA012000B2ADF808000DF1020205214A
:1014D0000C20FFF73CFF0DF1030206210C20FFF763
:1014E00036FF9DF802009DF8031040EA01204042BB
:1014F00000B2ADF80A0001AA07210C20FFF727FF70
:101500000DF1050208210C20FFF721FF9DF80400D2
:101510009DF8051040EA0120404200B2ADF80C00F1
:10152000BDF80800B4490880BDF80A004880BDF83D
:101530000C008880B1F9000003F069FE0446AE4853
:101540008168204603F0D4FCAB490862B1F902007F
:1015500003F05DFE0446A848C168204603F0C8FCBD
:10156000A5494862B1F9040003F051FE0446A248BF
:101570000169204603F0BCFC9F498862FFF770FFB9
:101580001FBD9D4B20330ECB80E80E00704770B519
:101590009A48007800287DD09748B0F900000028CC
:1015A00003DD9548B0F9000003E09348B0F900006E
:1015B0004042B0F57A7F6EDA8F48B0F90200002819
:1015C00003DD8D48B0F9020003E08B48B0F902005A
:1015D0004042B0F57A7FEEDA8748B0F9040000287F
:1015E00003DD8548B0F9040003E08348B0F9040046
:1015F0004042B0F57A7FDEDA7F49B1F9000003F0AE
:1016000006FE04467E480168204603F095FE05D29A
:101610007949B1F9000003F0FAFD01E0784800686B
:10162000774908607449B1F9020003F0F0FD0446FF
:1016300073484168204603F07FFE05D26E49B1F938
:10164000020003F0E4FD01E06D4840686C49486029
:101650006949B1F9040003F0DAFD0446684881687D
:10166000204603F069FE05D26349B1F9040003F096
:10167000CEFD01E062488068614988605E49B1F949
:10168000000003F0C4FD04465E480168204603F0F4
:1016900049FE01E0A8E0A2E005D25749B1F90000F7
:1016A00003F0B5FD01E0574800685649086052490B
:1016B000B1F9020003F0ABFD0446524841682046F0
:1016C00003F030FE05D24C49B1F9020003F09FFD52
:1016D00001E04C4840684B4948604749B1F9040073
:1016E00003F095FD044647488168204603F01AFE42
:1016F00005D24149B1F9040003F089FD01E04148F8
:1017000080684049886040480088B0F5FA6F66D12B
:101710000A4611683A4A106803F098FB06464FF0F3
:101720007C5103F0EBFB054603F08BFD04B2204631
:1017300003F06DFD30498860324A5168304A506884
:1017400003F084FB06464FF07C5103F0D7FB0546BF
:1017500003F077FD04B2204603F059FD2649C86026
:10176000284A9168264A906803F070FB06464FF0BD
:101770007C5103F0C3FB054603F063FD04B2204631
:1017800003F045FD1C4908611E4A11681C4A106897
:1017900003F0AEFB1D4908601A4A5168184A5068A8
:1017A00003F0A6FB19494860164A9168144A9068EC
:1017B00003F09EFB154988600A465168106803F0E3
:1017C000CFFB0D498861114A9168106803F0C8FB8E
:1017D0000949C86100200C490880084908700A4876
:1017E0000088401C0849088070BD10B5FFF755FE01
:1017F00010BD00004C000020500000207D000020A3
:10180000800000208C00002098000020440500206B
:1018100010B50120FE490870FE4B0E223B216820C6
:10182000FFF7E4FDFB484078FA49097840EA0120D7
:1018300000B2F9498880F748C078F649897840EACB
:10184000012001B2F448C180F2484079F149097998
:1018500040EA012001B2F0480181EE48407AED49AA
:10186000097A40EA012000B2EB494881E948C07A90
:10187000E849897A40EA012001B2E7488181E548D8
:10188000407BE449097B40EA012001B2E248C18182
:1018900010BDF8B506460F4614461D466B4601229C
:1018A00039463046FFF7A2FD2DB10120A0409DF83A
:1018B0000010084305E00120A0409DF8001021EA37
:1018C0000000C0B200909DF8002039463046FFF776
:1018D0001FFD08B9012000E00020D0490870F8BDC4
:1018E0002DE9F8430746884614461D46089E6B4678
:1018F000012241463846FFF779FD601CFF2101FABD
:1019000000F0C4F108012944491EFF220A41104396
:1019100000F0FF09C5F1080006FA00F0C6B2C4F1F4
:10192000070006419DF8000000EA090000909DF8BC
:101930000000304300909DF8002041463846FFF7F4
:10194000E7FCBDE8F88370B504464FF47A7090FB6D
:10195000F4F0401EC5B22A4619216820FFF7D8FCD2
:1019600070BD38B50446032302226B216820009421
:10197000FFF7B6FF38BD38B50446022304221B2109
:1019800068200094FFF7ACFF0020032307221B21EF
:1019900000906820FFF7A4FF38BD38B50446022345
:1019A00004221C2168200094FFF79AFF00200323E3
:1019B00007221C2100906820FFF792FF38BD10B568
:1019C0000446234606226B216820FFF762FF10BD04
:1019D00010B50446234605226A216820FFF759FF07
:1019E00010BD10B504462346012237216820FFF7B9
:1019F00050FF10BD38B50446032302221A21682087
:101A00000094FFF76DFF38BD7047002107E000220A
:101A100000E0521C42F210739A42FAD3491C8142F0
:101A2000F5D3704770B504460125FFF7EDFF2A2C6A
:101A300015D006DC052C0CD00A2C0CD0142C16D199
:101A40000BE0622C0DD0BC2C0DD0B4F5807F0ED1F4
:101A50000BE006250DE005250BE0042509E0032534
:101A600007E0022505E0012503E0002501E003254C
:101A700000BF00BFFFF7EDFA002065490870FFF7CF
:101A80009EFF0A20FFF7C1FF0320FFF76AFF0A202D
:101A9000FFF7BBFF4FF47A70FFF755FF0A20FFF7FF
:101AA000B4FF0320FFF767FF0A20FFF7AEFF022015
:101AB000FFF773FF0A20FFF7A8FFE8B2FFF79AFFCE
:101AC0000A20FFF7A2FF0020FFF782FF0A20FFF79E
:101AD0009CFF0120FFF785FF0A20FFF796FF70BDEE
:101AE00070B54D48007801287DD14B49B1F90410FB
:101AF0004943494AB2F90630B2F9062003FB021203
:101B00004549B1F90830B1F9081003FB012003F091
:101B10007EFB054600F01EFA0446414903F002FC34
:101B20001AD33D49B1F9041049433B4AB2F9063092
:101B3000B2F9062003FB02123749B1F90830B1F9B6
:101B4000081003FB012003F062FB054600F002FAD7
:101B50000446344903F0F0FB3348008800F10100EB
:101B600031490880314800682B49B1F90410084414
:101B70002E490860084641682748B0F90600084425
:101B80002A494860084681682348B0F90800A0F552
:101B90008050084425498860084680691E49B1F98B
:101BA00074100844214988611F480088322844DBAA
:101BB00008460068322190FBF1F4204603F027FB31
:101BC0001549486319484068322190FBF1F42046DA
:101BD00003F01DFB1049886314488068322190FB94
:101BE000F1F4204600E028E003F011FB0A49C86345
:101BF0000E488069322190FBF1F4204603F007FB88
:101C000005494866002008490880034908700FE02C
:101C10004C000020D0050020500500209C00002032
:101C200000401C45008022459E000020E005002069
:101C3000624988618860486008606148407800288F
:101C40005FD060480088401C5E4908805B4800699E
:101C50005B49B1F90A100844584908610846C1684F
:101C60005748B0F90C0008445449C8600846416917
:101C70005348B0F90E00084450494861084680694D
:101C80004F49B1F9741008444C4988614D480088A7
:101C9000322836DB086903F0BAFA04464A4903F0F1
:101CA0005FF9474908644549C86803F0B0FA04463B
:101CB000454903F055F9424948644049486903F0F1
:101CC000A6FA0446404903F04BF93D4988643B4875
:101CD0008069322190FBF1F4204603F098FA3849EC
:101CE000886600203749088035484078012802D1AD
:101CF0000020334948700020304988614861C8603D
:101D0000086170BD30B5DDE90354186029602260B8
:101D100030BD10B588B004461C2101A803F08BF833
:101D2000FFF7DEFE294840782849097840EA01207B
:101D300000B2234988802548C0782449897840EA40
:101D4000012001B21E48C180204840791F4909790D
:101D500040EA012001B21A4801811C48407A1B491F
:101D6000097A40EA012000B2154948811748C07A33
:101D70001649897A40EA012001B21148818113484D
:101D8000407B1249097B40EA012001B20C48C18125
:101D90000146C8690E4903F0B1F809498862086A2A
:101DA0000B4903F0ABF80649C862486A084903F0DA
:101DB000A5F80349086308B010BD0000E005002045
:101DC00050050020A000002000004842D00500205F
:101DD00098FA793D10B504460021204603F0ACFA8C
:101DE00001D8204610BD84F00040FBE72DE9FE4FEE
:101DF000824688460021504603F094FA04D0002120
:101E0000404603F08FFA01D1002498E05046FFF7D6
:101E1000E1FF01904046FFF7DDFF0290DDE901019F
:101E200003F080FA05D2DDE9010103F099F80746D5
:101E300004E0DDE9011003F093F80746FE49384657
:101E400003F070FA01D23D462BE04FF0874138464F
:101E500003F054F883464FF07C5103F049F8814673
:101E6000484603F0EEF90646304603F0D0F98346C3
:101E7000494603F040F88146F04850F826500246A3
:101E800052F826100346721C53F8220003F030F873
:101E90004946009003F032F88346294602F0D6FF07
:101EA0000546DDE9011003F047FA20D20021404643
:101EB00003F042FA09D80021504603F03DFA01D858
:101EC0002C463CE085F0004439E0DD4C00215046D2
:101ED00003F032FA05D82946204603F009F80446F3
:101EE0002DE02146284603F003F8044627E00021B0
:101EF000504603F021FA11D8D24C0021404603F09D
:101F00001BFA05D82946204602F0F2FF044616E0E7
:101F10002946204602F09AFF044610E0CA4C0021F0
:101F2000404603F009FA05D82946204602F08EFF04
:101F3000044604E02946204602F0DAFF0446204623
:101F4000BDE8FE8F70B504460D4621462846FFF7D2
:101F50004DFF70BD2DE9F05F04464FF07F594FF003
:101F60007C51204602F0CAFF824625462E46B748DD
:101F7000A0EB660635462946504602F0BFFF834671
:101F8000294602F0BBFF8046494602F0B4FF0746EF
:101F9000294602F0B3FF05462946504602F0AEFF3F
:101FA0008346294602F0AAFF8046494602F0A3FF75
:101FB0000746294602F0A2FF05462946204602F0C0
:101FC0009DFFBDE8F09F2DE9FC5F06460F4600220D
:101FD00013463046394603F061F914D24FF0C0423F
:101FE0009B4B3046394603F0A0F882464FF0C04282
:101FF000984B02F0F3FF804632463B4603F095F8DB
:1020000004460D4613E04FF0C042914B304639462E
:1020100003F08BF880464FF0C0428E4B03F082F8FD
:10202000824632463B4603F080F804460D460022C5
:1020300013462046294603F031F919D20022864B77
:102040002046294602F0CAFF80464FF04042834BAB
:1020500003F06BF8824600227F4B02F0BFFF22465E
:102060002B46CDE9000103F060F804460D4618E068
:102070000022794B2046294603F051F880464FF064
:102080004042774B03F051F882460022724B02F037
:10209000A5FF22462B46CDE9000103F046F8044691
:1020A0000D4620462946BDE8FC9F2DE9F047044631
:1020B0000D464FF0010A6B4A6B4B2046294603F050
:1020C00001F909D8674A684B2046294603F027F8EA
:1020D00004460D464FF0FF3A504603F0A1F806467D
:1020E0000F4620462946FFF76EFF804632463B46A4
:1020F00003F01BF8BDE8F0872DE9F84F04460D46C4
:1021000001200090574A594B2046294602F066FFAD
:1021100004460D46534A544B2046294603F0D2F854
:102120000AD84FF0FF3000904E4A4F4B20462946C8
:1021300002F0F5FF04460D46009803F071F80646DC
:102140000F4620462946FFF7B0FF804632463B4601
:1021500002F0EBFF824603F0C9F8BDE8F88F70B5D6
:1021600005460E460021284603F0E6F80BD231461C
:10217000284602F0BDFE04460021204603F0D2F8B6
:1021800002D2002400E02C46204670BD70B5054602
:102190000E460021284603F0C5F80BD231462846EA
:1021A00002F054FE04460021204603F0C5F802D296
:1021B000002400E02C46204670BD2DE9F041074682
:1021C0000C4616462146384603F0B6F80BD2314687
:1021D000384602F08DFE05462146284603F0A2F857
:1021E0000CD225460AE03146384602F02FFE05465D
:1021F0002146284603F0A0F800D225462846BDE82F
:10220000F0812DE9F04704460F46154685F0004958
:102210003946484602F01AFE8046214603F082F80D
:1022200026D23946284602F011FE8046214603F0A8
:1022300083F81DD23E461CE08180803BB800002020
:10224000DB0F4940DB0FC93FDB0FC9BFDF59375FE9
:102250002FF0D93F305FF43F0000F03FCCCCCCBF33
:10226000CCCCCC3FF1D4C853FB210940FB21F93F32
:1022700026463046BDE8F08770B504460D4600227C
:102280005D4B2046294603F01DF806D200225B4B29
:102290002046294602F043FF70BD0022584B2046DD
:1022A000294602F0FBFF06D20022544B2046294665
:1022B00002F094FEF0E720462946EDE710B504460B
:1022C0005049204603F038F804D24F49204602F026
:1022D0000FFE10BD4D49204603F024F804D24A49B0
:1022E000204602F0B3FDF4E72046F2E72DE9F04185
:1022F00006460C4615460021284603F01DF801D27B
:10230000284601E085F000400746316903F014F8E3
:102310000BD20021284603F005F804D2206980F092
:102320000040BDE8F0812069FBE70021284603F06A
:1023300003F801D2284601E085F000400746F16825
:1023400002F0FAFF0AD20021284602F0EBFF03D286
:10235000E06880F00040E4E7E068E2E7002128461A
:1023600002F0EAFF01D2284601E085F0004007466E
:10237000B16802F0E1FF0AD20021284602F0D2FF44
:1023800003D2A06880F00040CBE7A068C9E7002135
:10239000284602F0D1FF01D2284601E085F0004036
:1023A0000746716802F0C8FF0AD20021284602F0F1
:1023B000B9FF03D2606880F00040B2E76068B0E720
:1023C0000021284602F0B8FF01D2284601E085F03E
:1023D00000400746316802F0AFFF0AD200212846CC
:1023E00002F0A0FF03D2206880F0004099E7206847
:1023F00097E7002095E70000008066400080764067
:10240000008066C0000034430000B443000034C3C1
:102410002DE9F04704460D4616466168084602F06D
:102420006DFD8046A168084602F068FD8146414680
:1024300002F00CFD0746FFF78DFDFE49086021689C
:10244000084602F05BFD8046A168084602F056FD92
:102450008146414602F0FAFC0746FFF77BFDF6494C
:1024600008600021A06802F05DFF02D24FF0FF304B
:1024700000E00120F1490870084690F9000002F0E0
:10248000C6FE8246216802F039FD8046A96802F046
:1024900035FD0746E7482968006802F02FFD8146B0
:1024A000394602F025FD3060A968606802F026FD1B
:1024B0008146E24890F9000002F0A9FE8246DE481B
:1024C0000168504602F01AFD8046696802F016FD68
:1024D0000746494602F00CFD7060A968A06802F04A
:1024E0000DFD80466968606802F008FD8146296834
:1024F000206802F003FD8246494602F0A7FC074629
:10250000414602F0A3FCB060BDE8F0870FB58FB084
:10251000CB490F9802F0F2FCCA490B9002F0EEFC96
:102520000C90C948806A0890C748806A079008994B
:1025300002F0E4FC0A90C448406A0690C248406A2F
:102540000590069902F0DAFC0890BF48006A0690F0
:10255000BD48006A0590069902F0D0FC07900899E2
:1025600002F074FC09900A9902F070FC0B90FFF7DE
:10257000F1FCB64908600021B448006802F0D2FEC0
:1025800059D0B148006A0890B0480168089802F034
:10259000E7FC0990AE48006801460890099802F0EF
:1025A000A7FC0A900C9902F0A9FC0B90A8480068BF
:1025B00001460A900B9802F049FCA5490860A24820
:1025C000406A0890A1480168089802F0C9FC099087
:1025D0009F48406801460890099802F089FC0A90DB
:1025E0000C9902F08BFC0B909948406801460A90C8
:1025F0000B9802F02BFC964948609348806A08903B
:1026000092480168089802F0ABFC099090488068F5
:1026100001460890099802F06BFC0A900C9902F0B0
:102620006DFC0B908A48806801460A900B9802F076
:102630000DFC87498860874A85498748FFF7E8FE8F
:10264000844840680890834840680790089902F0E1
:1026500055FC0A907F48006808907E480068079003
:10266000089902F04BFC09900A9902F0EFFB0B90DD
:10267000FFF770FC794908607648006800210B90EC
:1026800002F050FE2ED07348406800210B9002F0FB
:1026900049FE27D06F48806800210B9002F042FE6F
:1026A00020D000216D48006802F03CFE1AD0694835
:1026B0000068089069480168089802F051FC0A9087
:1026C00064484068089065480168089802F048FC32
:1026D00009900A99FFF78AFB61490B9002F00EFC02
:1026E000604908606048806808905F48006807900B
:1026F000089902F003FC0A905B48C06808905A48A9
:1027000040680790089902F0F9FB09900A9902F0D5
:10271000EFFB4FF080410B9002F0F0FB4E49086058
:102720005148C0680890504880680790089902F0A6
:10273000E5FB0A904C48406808904B4800680790B9
:10274000089902F0DBFB09900A9902F07FFB4FF039
:1027500080410B9002F0D2FB3F49486042488068BC
:102760000790414880680690079902F0C7FB0990DE
:102770003D48406807903C4840680690079902F041
:10278000BDFB0890099902F061FB4FF080410A906F
:1027900002F0B4FB4FF07E510B9002F0ACFB2E49DF
:1027A000886032480078002868D0304800780228D5
:1027B00004D100202E4908604860886026480068DF
:1027C000014607904FF08B4002F098FB0890149957
:1027D00002F091FB2749099002F090FB26490A90EC
:1027E00002F08CFB0B902248006801460A900B987F
:1027F00002F02CFB1E49086017484068014607900C
:102800004FF08B4002F07AFB0890159902F073FBB1
:102810001849099002F072FB17490A9002F06EFB0A
:102820000B901348406801460A900B9802F00EFB8B
:102830000F4924E0040500200805002000050020C1
:10284000C3F5C8400000A04150000020E80400206B
:10285000C007002018070020D0060020E404002054
:102860003333654210050020C8040020EC0400202A
:102870003C0700205C201940CDCC4C3C29E048604E
:10288000F9488068014607904FF08B4002F036FB14
:102890000890169902F02FFBF449099002F02EFBE4
:1028A000F3490A9002F02AFB0B90F2488068014637
:1028B0000A900B9802F0CAFAEE498860EE48007858
:1028C000401CED49087008460078522801DB0020C2
:1028D0000870E5480068014608904FF08B4002F010
:1028E0000DFB0990149902F006FBE0490A9002F0F2
:1028F00005FB0B90DF48006801460A900B9802F038
:10290000F7FADE490860D8484068014608904FF061
:102910008B4002F0F3FA0990159902F0ECFAD349D2
:102920000A9002F0EBFA0B90D248406801460A90F8
:102930000B9802F0DDFAD1494860CB488068014627
:1029400008904FF08B4002F0D9FA0990169902F0E6
:10295000D2FAC6490A9002F0D1FA0B90C5488068B5
:1029600001460A900B9802F0C3FAC4498860BE4839
:1029700080680990084680680890099902F0BEFABC
:102980000B90B94840680790BC484068069007998A
:1029900002F0B4FA0990B44800680790B74800689C
:1029A0000690079902F0AAFA0890099902F04EFAE7
:1029B0000A900B9902F04AFAB149886016990846C4
:1029C00002F09CFA0A901599084602F097FA0890CE
:1029D0001499084602F092FA0790089902F036FA24
:1029E00009900A9902F032FA0B90FFF7B3FAA54961
:1029F00008600021149802F09FFC01D2149802E0B4
:102A0000149880F00040A0490B9002F08BFC7DD21E
:102A10000021159802F090FC01D2159802E015985B
:102A200080F0004098490B9002F07CFCEFD200212E
:102A3000169802F081FC01D2169802E0169880F0F8
:102A4000004091490B9002F06DFCE0D28D48016886
:102A5000149802F085FA14908A480168159802F0DB
:102A60007FFA159087480168169802F079FA169057
:102A700084480168854802F055FC74D28249814837
:102A8000006802F04FFC6ED277484068014609901A
:102A9000169802F033FA0B9073488068014609904B
:102AA000159802F02BFA0A900B9902F021FA784956
:102AB000C8606D48806801460990149802F01EFABB
:102AC0000B906948006801460990169802F016FAC2
:102AD0000A900B9902F00CFA6D4908616D490F9844
:102AE00002F00CFA4FF07E510B9002F007FA0D90B5
:102AF0006748806909906648C0680890099902F0A3
:102B0000F7F90A900D9902F0F9F900E027E00B902F
:102B10005F48806901460A900B9802F097F95C497A
:102B200088610846C06909900846006908900999BB
:102B300002F0DEF90A900D9902F0E0F90B9054488A
:102B4000C06901460A900B9802F080F95049C861AB
:102B50000846806908600846C069486003E00020B4
:102B60004B49086048604A4800680021089002F01C
:102B7000C5F94FF08041099002F0C0F90A900F9911
:102B800002F0BCF90B904248406A01460A900B984B
:102B900002F05CF93E49486208464068002108900E
:102BA00002F0ACF94FF08041099002F0A7F90A90C9
:102BB0000F9902F0A3F90B903548806A01460A90FC
:102BC0000B9802F043F93249886208468068002178
:102BD000089002F093F94FF08041099002F08EF9CD
:102BE0000A900F9902F08AF90B902948C06A0146B1
:102BF0000A900B9802F02AF92549C8620846406AF3
:102C000025490B9002F08EFB01D223480AE02048B0
:102C1000406A22490B9002F08FFB01D21F4801E06D
:102C20001B48406A1A4948620846806A1A490B9054
:102C300002F078FB01D218480AE01548806A17496B
:102C40000B9002F079FB01D2144801E01048806A31
:102C50000F4988620846C06A0F490B9002F062FB78
:102C60001ED20D4827E00000D00600205C2019404D
:102C7000CDCC4C3C3C070020EC0400203007002069
:102C800024070020D80400200080894500806D457D
:102C9000DC060020C3F5C84034FA0EBD34FA0E3D00
:102CA000FE48C06AFE490B9002F046FB01D2FC4888
:102CB00001E0FA48C06AF949C862FA488068002110
:102CC0000B9002F039FB22D2F748007878B1F74830
:102CD0000168F748006802F00BF90A90FFF7EEFA76
:102CE000F4490B9002F00AF9F349086012E0EF484A
:102CF0000168EF48006802F0FBF80A90FFF7DEFA7F
:102D0000EE490B9002F0FAF8EB49086002E000206F
:102D1000E9490860E148406A0890E0480068079087
:102D2000089902F093F8E649099002F0E7F80B9051
:102D3000DC4800680790E0480168079802F0DEF878
:102D40000890109902F0D7F8DE49099002F0D6F801
:102D50000A900B9902F07AF8D04908630846806A15
:102D60000890084640680790089902F06FF8D44927
:102D7000099002F0C3F80B90CA4840680790CE480B
:102D80000168079802F0BAF80890119902F0B3F8B8
:102D9000CC49099002F0B2F80A900B9902F056F86B
:102DA000BE494863BF4880680990C34801680998D4
:102DB00002F0A4F80A90129902F09DF8C1490B9014
:102DC00002F09CF8B54988630846806B0790BE48BE
:102DD000C0680690079902F091F80990AF48406BDF
:102DE0000590B94880680490059902F087F807902B
:102DF000B548406880F000400590A848006B014647
:102E00000490059802F07AF80690079902F070F89D
:102E10000890099902F06CF80A900F9902F06EF888
:102E20000B90A948006801460A900B9802F00EF832
:102E3000A54908609948406B07900846C06806900D
:102E4000079902F05BF809909448806B05909E48C2
:102E500080680490059902F051F807908F48006B44
:102E60000590994800680490059902F047F806908B
:102E7000079901F0EBFF0890099902F039F80A90E0
:102E80000F9902F03BF80B908F48406801460A907A
:102E90000B9801F0DBFF8C4948608048006B07907D
:102EA0000846C0680690079902F028F809907B4808
:102EB000806B0590844840680490059902F01EF8E4
:102EC00007907648406B05907F480068049005990C
:102ED00002F014F80690079902F00AF80890099990
:102EE00001F0B4FF0A900F9902F008F80B907648B1
:102EF000806801460A900B9801F0A8FF724988602B
:102F00006648006B0790084680680690079901F0B4
:102F1000F5FF09906148406B05906B48406804904C
:102F2000059901F0EBFF07905C48806B05906648BF
:102F300000680490059901F0E1FF0690079901F0FF
:102F400085FF0890099901F0D3FF0A900F9901F0CD
:102F5000D5FF0B905C48C06801460A900B9801F0C1
:102F600075FF5949C8600846C06808900846C0689F
:102F70000790089901F0C2FF0A90534880680690B4
:102F8000514880680590069901F0B8FF08904E48B6
:102F9000406804904C4840680390049901F0AEFFEB
:102FA00006904948006804904748006803900499D7
:102FB00001F0A4FF0590069901F048FF07900899D9
:102FC00001F044FF09900A9901F040FF0B90FEF7D1
:102FD000C1FF3E4908603C4800680B900846016804
:102FE0000B9801F0BDFF38490860084640680B9017
:102FF000364801680B9801F0B3FF33494860084632
:1030000080680B90314801680B9801F0A9FF2E49A8
:1030100088600846C0680B902C4801680B9801F046
:103020009FFF2949C8600846806804900846806868
:103030000390049901F062FF0690234840680490D1
:10304000214840680390049901F058FF05900699C3
:1030500001F0FCFE4FF08041079001F04FFF4FF070
:103060007E51089001F047FF0A901748C06805900C
:10307000154880680490059901F040FF07901248B8
:1030800040680590104800680490059901F036FFEB
:103090000690079901F0DAFE1AE00000DC06002035
:1030A00034FA0E3DD0060020ED040020C4040020B8
:1030B0001005002090C2753D0C0500206766E63EB5
:1030C0009A99993E34FA8E3CC8040020DC04002012
:1030D0004FF08041089001F011FF09900A99FEF726
:1030E00085FE4B490B9001F009FF1799086049488C
:1030F00080680190474800680090019901F0FEFE49
:1031000003904448C068019042484068009001998B
:1031100001F0F4FE0290039901F0EAFE4FF08041C5
:10312000049001F0EBFE059002F0A4F8CDE9060151
:1031300002F03CFC4FF0C042374BCDE9080101F0F2
:10314000F4FFCDE90A0102F0D1F81899086031487E
:10315000406804902F4840680390049901F0CEFE27
:1031600006902C48006804902A480068039004994F
:1031700001F0C4FE0590069901F068FE4FF0804111
:10318000079001F0BBFE4FF07E51089001F0B0FEB9
:103190000A902048C06805901E4800680490059970
:1031A00001F0ACFE07901B48406880F0004005909D
:1031B0001848806801460490059801F09FFE06902B
:1031C000079901F095FE4FF08041089001F096FEBE
:1031D00009900A99FEF70AFE0D490B9001F08EFE48
:1031E000199908600D4801681998016017980068DE
:1031F0000B490B9001F082FE17990860189800683F
:1032000007490B9001F07AFE1899086013B000BDD1
:1032100033336542C804002066A64C4010050020E8
:10322000000080BF31490143314A1160704770B5D9
:10323000002100230F22C47804B32D4C246804F429
:10324000E064C4F5E064210AC1F10403CA40447893
:1032500004FA03F18478144021430901254C0678CF
:10326000A155047804F01F050124AC4005786D11C8
:10327000AD0005F1E025C5F8004109E0047804F04F
:103280001F050124AC401C4D0678761145F82640F8
:1032900070BD1A4A0A400243154B1B1F1A60704743
:1032A00039B1134A121D12680243114B1B1D1A60DB
:1032B00006E00F4A121D126882430D4B1B1D1A6057
:1032C0007047042808D14FF0E021096941F004015A
:1032D0004FF0E022116107E04FF0E021096921F091
:1032E00004014FF0E0221161704700000000FA0570
:1032F0000CED00E000E400E080E100E080FFFF1F53
:1033000010B50446CC48844208D10121042000F0C5
:103310002DFB0021042000F029FB46E0C748844231
:1033200008D10121082000F021FB0021082000F035
:103330001DFB3AE0C248844208D10121102000F070
:1033400015FB0021102000F011FB2EE0BD48844247
:1033500008D10121202000F009FB0021202000F0ED
:1033600005FB22E0B848844208D10121402000F04A
:10337000FDFA0021402000F0F9FA16E0B34884423B
:1033800008D10121802000F0F1FA0021802000F016
:10339000EDFA0AE0AE48844207D10121801500F021
:1033A000E5FA0021A01500F0E1FA10BD10B50121E9
:1033B000084600F0DBFA0021012000F0D7FA10BD2A
:1033C0002DE9F041024600250026002000230024BC
:1033D000002791F803C00CF00F0591F803C00CF022
:1033E000100CBCF1000F03D091F802C04CEA0505A7
:1033F00091F800C0BCF1000F31D0146800202BE020
:103400004FF0010C0CFA00F3B1F800C00CEA03060F
:103410009E4220D183004FF00F0C0CFA03F7BC43FF
:1034200005FA03FC4CEA040491F803C0BCF1280F30
:1034300006D14FF0010C0CFA00FCC2F814C00AE0EF
:1034400091F803C0BCF1480F05D14FF0010C0CFA04
:1034500000FCC2F810C0401C0828D1D31460B1F899
:1034600000C0BCF1FF0F34DD546800202EE000F1F5
:10347000080C4FF0010808FA0CF3B1F800C00CEA90
:1034800003069E4221D183004FF00F0C0CFA03F784
:10349000BC4305FA03FC4CEA040491F803C0BCF1F8
:1034A000280F05D100F1080C08FA0CF8C2F81480B6
:1034B00091F803C0BCF1480F07D100F1080C4FF0A0
:1034C000010808FA0CF8C2F81080401C0828CED376
:1034D0005460BDE8F0814FF6FF71018002218170D8
:1034E0000421C17070470246002093680B400BB165
:1034F000012000E0002070470146886880B27047D4
:1035000002460020D3680B400BB1012000E00020F0
:1035100070470146C86880B27047016170474161D9
:1035200070470AB1016100E041617047C1607047B6
:103530004FF480320A4382618161826182698269CB
:10354000704702460020434B18684FF680731840BE
:1035500040EA021008433F4B186070473E49C8617B
:103560007047F0B50A46002300240021002500F032
:103570000046B6F1004F02D1364EF16901E0354EFA
:103580007168C0F3034583B200F44016B6F5401FDE
:1035900008D121F070612F4E766826F070662D4FAD
:1035A0007E6012E000F48016B6F5801F06D1032677
:1035B00006FA05F4A14341F0706106E0460D3601BC
:1035C00003FA06F6B14341F0706122B1460D3601AF
:1035D00003FA06F6314300F00046B6F1004F02D17F
:1035E0001C4EF16101E01B4E7160F0BD30B5002250
:1035F0008B071C0F0F2303FA04F2164B08338C10B1
:1036000053F824309343134C08348D1044F825307C
:1036100023468C1053F824308C07240F00FA04F44E
:1036200023430C4C08348D1044F8253030BD0A4932
:10363000DC3108607047000000080140000C0140C8
:10364000001001400014014000180140001C01401E
:10365000002001400000014000002042DF480068D7
:1036600040F00100DD49086008464068DC49084038
:10367000DA49486008460068DA490840D7490860D6
:103680000846006820F4802008600846406820F45E
:10369000FE0048604FF41F0088607047CF490968FA
:1036A00021F48031CD4A11601146096821F480214E
:1036B0001160B0F5803F03D0B0F5802F0ED106E049
:1036C000C649096841F48031C44A116007E0C34922
:1036D000096841F4A021C14A116000E000BF00BFA9
:1036E000704710B501460022002300204A11012A2C
:1036F00002D1BA4C236806E0022A02D1B74C236AF1
:1037000001E0B64C636A01F01F02012494401C40A2
:103710000CB1012000E0002010BD38B50020009061
:103720000024002500BF3120FFF7DBFF054600988D
:10373000401C00900098B0F5A06F01D0002DF2D091
:103740003120FFF7CEFF08B1012400E0002420461D
:1037500038BD01460020A14A106820F0F80040EA78
:10376000C10010607047A049086070470246002001
:103770009A4B586820F47C1042EA01031843974B97
:103780005860704798490866704701460020934A80
:10379000506820F003000843506070478F4840682D
:1037A00000F00C007047014600208C4A506820F061
:1037B000F00008435060704701460020874A506877
:1037C00020F4E06008435060704701460020834ABF
:1037D000506820F4605040EAC1005060704729B141
:1037E0007E4A527A02437D4B5A7204E07B4A527AF7
:1037F00082437A4B5A7270477B49D83108607047D0
:1038000001460020754A506820F44040084350604B
:1038100070470021714A20321170704A82F82010DE
:10382000012802D004280AD104E001216B4A203289
:10383000117005E00521694A2032117000E000BFD7
:1038400000BF70476949086070476449096A0143CD
:10385000624A11627047654944390860704730B563
:1038600000210022002400235C4D6D6805F00C014E
:1038700021B1042905D0082923D105E05C4D05605C
:1038800022E05B4D05601FE0544D6D6805F4701239
:10389000524D6D6805F48034022505EB92421CB947
:1038A000544D554305600BE04C4D6D6805F40035F3
:1038B0001DB1504D5543056002E04D4D5543056027
:1038C00002E04B4D056000BF00BF444D6D6805F040
:1038D000F0010909484D6B5C0568DD4045603F4DCE
:1038E0006D6805F4E061090A434D6B5C4568DD4095
:1038F00085603A4D6D6805F46051C90A3E4D6B5CB8
:103900004568DD40C560354D6D6805F44041890B63
:103910003A4D6B5CC568B5FBF3F5056130BD29B167
:103920002E4A526902432D4B5A6104E02B4A5269D8
:1039300082432A4B5A61704729B1284A926902434F
:10394000264B9A6104E0254A92698243234B9A618F
:10395000704729B1214AD2690243204BDA6104E061
:103960001E4AD26982431D4BDA61704729B11B4A56
:10397000D2680243194BDA6004E0184AD2688243E5
:10398000164BDA60704729B1144A12690243134B8F
:103990001A6104E0114A12698243104B1A617047A0
:1039A00012494039086070470F49C86470470B4995
:1039B000C87170470948406A40F080700749486202
:1039C000704701460020054A92680A400AB101206A
:1039D00000E00020704701498872704700100240E3
:1039E0000000FFF8FFFFF6FE000042428004424262
:1039F00000127A0000093D00140500202405002073
:103A000010B50446FB48844209D101218803FFF721
:103A1000ADFF00214FF48040FFF7A8FF32E0F648E9
:103A2000844209D101214804FFF7ADFF00214FF482
:103A30000030FFF7A8FF25E0F048844209D10121BA
:103A40008804FFF7A0FF00214FF48020FFF79BFFC1
:103A500018E0EB48844209D10121C804FFF793FF25
:103A600000214FF40020FFF78EFF0BE0E548844271
:103A700008D101210805FFF786FF00214FF48010CF
:103A8000FFF781FF10BD2DE9F04786B005460E46D1
:103A90000024A24600BFA1460027B08900B100BFA4
:103AA0002F462C8A4CF6FF700440F08804432C8289
:103AB000AC894EF6F3100440B0883189084371890F
:103AC00008430443AC81AC8A4FF6FF400440B08900
:103AD0000443AC8201A8FFF7C2FEC648874202D168
:103AE000DDF810A001E0DDF80CA0A88900F400408A
:103AF00040B10AEBCA0000EB0A1031684900B0FB84
:103B0000F1F807E00AEBCA0000EB0A1031688900FF
:103B1000B0FBF1F86420B8FBF0F004012009642147
:103B200001FB1089A88900F4004040B1322000EB6D
:103B3000C900B0FBF1F000F00700044308E03220B8
:103B400000EB09106421B0FBF1F000F00F0004431A
:103B50002C8106B0BDE8F0874FF4165101600021BA
:103B60008180C18001810C214181002181817047C8
:103B700010B502460020108A4FF2FF0318400B8850
:103B80004C8823438C882343CC88234318431082DA
:103B900010BD0021018041808180C180704721B12A
:103BA000828942F40052828104E082894DF6FF73DB
:103BB0001A4082817047F0B5034600240026002594
:103BC000002040F66A17B94200D100BF1846C1F381
:103BD000421401F01F06012707FA06F5012C01D156
:103BE0000C3004E0022C01D1103000E014301AB186
:103BF00007682F43076002E00768AF430760F0BD26
:103C00001AB1838A0B43838202E0838A8B438382C7
:103C10007047028A4FF6F0731A400282028A0A4302
:103C20000282704782894FF2FF731A408281828933
:103C30000A438281704721B1828942F00202828167
:103C400004E082894FF6FD731A4082817047028A30
:103C50004FF6DF731A400282028A0A4302827047DB
:103C600021B1028A42F48042028204E0028A4BF6C9
:103C7000FF731A4002827047C1F3080282807047C6
:103C800001468888C0F308007047818941F001012E
:103C900081817047028BD2B20283028B42EA0122F9
:103CA00002837047028B02F47F420283028B0A4335
:103CB0000283704721B1828A42F02002828204E0AE
:103CC000828A4FF6DF731A408282704721B1828A5E
:103CD00042F01002828204E0828A4FF6EF731A40AB
:103CE0008282704721B1828A42F00802828204E017
:103CF000828A4FF6F7731A408282704721B1828917
:103D000042F40042828103E08289C2F30E02828182
:103D1000704721B1828A42F40062828204E0828A82
:103D20004FF2FF731A4082827047828A4FF6FB730C
:103D30001A408282828A0A438282704721B1828A33
:103D400042F00202828204E0828A4FF6FD731A403A
:103D50008282704702460020B1F5007F00D100BF8B
:103D600013880B400BB1012000E00020704701F4E4
:103D70000072B2F5007F00D100BFCA4302807047D5
:103D800070B50246002400230025002040F66A1684
:103D9000B14200D100BFC1F3421501F01F0301265B
:103DA00006FA03F3012D02D19689334006E0022D75
:103DB00002D1168A334001E0968A33400C12012664
:103DC00006FA04F41688344013B10CB1012000E067
:103DD000002070BD10B50022002340F66A14A142F5
:103DE00000D100BF0A1201249440A3B2DC43048036
:103DF00010BD000000380140004400400048004071
:103E0000004C00400050004010B50446FE4884427B
:103E100008D10121C014FFF7A9FD0021E014FFF72C
:103E2000A5FDC4E0B4F1804F08D101210846FFF799
:103E3000AAFD00210120FFF7A6FDB8E0F348844267
:103E400008D101210220FFF79EFD00210220FFF78B
:103E50009AFDACE0EE48844208D101210420FFF72E
:103E600092FD00210420FFF78EFDA0E0E948844286
:103E700008D101210820FFF786FD00210820FFF767
:103E800082FD94E0E448844208D101211020FFF72C
:103E90007AFD00211020FFF776FD88E0DF4884429C
:103EA00008D101212020FFF76EFD00212020FFF71F
:103EB0006AFD7CE0DA48844208D101214014FFF712
:103EC00055FD00216014FFF751FD70E0D548844294
:103ED00009D10121C804FFF749FD00214FF400205A
:103EE000FFF744FD63E0D048844209D10121080571
:103EF000FFF73CFD00214FF48010FFF737FD56E03F
:103F0000CA48844209D101214805FFF72FFD00214D
:103F10004FF40010FFF72AFD49E0C548844208D15C
:103F200001214020FFF72FFD00214020FFF72BFD4E
:103F30003DE0C048844208D101218020FFF723FDE5
:103F400000218020FFF71FFD31E0BB48844208D1EB
:103F500001218015FFF717FD0021A015FFF713FDC4
:103F600025E0B648844209D101210804FFF7FEFC90
:103F700000214FF48030FFF7F9FC18E0B04884428C
:103F800009D101214804FFF7F1FC00214FF4003072
:103F9000FFF7ECFC0BE0AB48844208D10121880418
:103FA000FFF7E4FC00214FF48020FFF7DFFC10BD99
:103FB00000220288944B98420ED0994B98420BD025
:103FC000B0F1804F08D0914B984205D0904B984269
:103FD00002D0904B984204D14FF68F731A404B8811
:103FE0001A438D4B984207D08C4B984204D04FF621
:103FF000FF431A40CB881A4302808B8883850B8845
:104000000385814B98420BD0854B984208D08B4B4F
:10401000984205D08A4B984202D08A4B984201D1EF
:104020000B7A038601238382704770B50024002237
:104030000023058C4FF6FE7635400584028C83887C
:10404000048B4FF68F752C40B51E2C400D882C43E9
:10405000751E2A400D892A434D882A436A4DA8427D
:104060000BD06F4DA84208D0744DA84205D0744DB6
:10407000A84202D0734DA84213D14FF6F7752A40DB
:104080004D892A434FF6FB752A408D882A434FF607
:10409000FF652B404FF6FF552B408D892B43CD8973
:1040A0002B4383800483CD888586028470BD70B5E0
:1040B000002400220023058C4FF6EF76354005845E
:1040C000028C8388048B48F6FF752C404FF6FF4521
:1040D0002C400D884FF6FF7606EA05252C434FF657
:1040E000DF752A400D8906EA05152A434D8806EA40
:1040F00005152A43444DA84202D0494DA8421DD17E
:104100004FF67F752A404D894FF6FF7606EA051572
:104110002A434FF6BF752A408D8806EA05152A43C3
:104120004FF6FF352B404FF2FF752B408D8906EA85
:1041300085052B43CD8906EA85052B4383800483BF
:10414000CD880587028470BD70B50024002200234D
:10415000058C4FF6FF6635400584028C8388848B7E
:104160004FF68F752C404FF6FC752C400D882C4374
:104170004FF6FF552A400D894FF6FF7606EA0525D2
:104180002A434D8806EA05252A431F4DA84202D03E
:10419000234DA8421DD14FF2FF752A404D894FF69D
:1041A000FF7606EA05252A434FF6FF352A408D881B
:1041B00006EA05252A434EF6FF752B404DF6FF759E
:1041C0002B408D8906EA05152B43CD8906EA051596
:1041D0002B4383808483CD888587028470BD70B52E
:1041E000002200230024058C4EF6FF76354005841E
:1041F000038C8488828B48F6FF752A404FF6FF4572
:104200002A400D8820E00000002C014000040040FE
:1042100000080040000C0040001000400014004066
:1042200000340140004C0140005001400054014066
:1042300000180040001C00400020004000400140E9
:1042400000440140004801404FF6FF7606EA05258C
:104250002A434DF6FF752B400D8906EA05352B43A1
:104260004D8806EA05352B43FA4DA84202D0FA4D97
:10427000A84208D14BF6FF752C408D894FF6FF768A
:1042800006EA85152C4384808283CD88A0F84050AF
:10429000038470BD828B4FF2FF331A408283828B7E
:1042A0004FF6FF7303EA01231A4382837047F0B588
:1042B0000C461546002200210026078C4EF6FF7C96
:1042C00007EA0C070784828B018C4FF6FF7707EA19
:1042D000043640F6FF473A404FF6FF7707EA0527D6
:1042E0003A434FF6FF7707EA03373A43D94FB842CC
:1042F0000ED0D94FB8420BD0B0F1804F08D0D74F75
:10430000B84205D0D64FB84202D0D64FB84206D1F7
:104310004DF6FF77394046F48057394305E047F6BC
:10432000FF57394044F48057394382830184F0BDFC
:10433000828B4FF6F3731A408283828B0A43828307
:104340007047F0B50C461546002200210026078C68
:104350004FF6FF6C07EA0C070784828B018C4FF63F
:10436000FF7707EA04264FF60C773A404FF6FF77BF
:1043700007EA03172F433A43B64FB8420ED0B64F61
:10438000B8420BD0B0F1804F08D0B44FB84205D03E
:10439000B34FB84202D0B34FB84206D14FF6FF57E1
:1043A000394046F48077394305E04FF2FF573940F2
:1043B00044F48077394382830184F0BD028B4FF24D
:1043C000FF331A400283028B4FF6FF7303EA012387
:1043D0001A4302837047F0B50C46154600220021AF
:1043E0000026078C4FF6EF7C07EA0C070784028B48
:1043F000018C4FF6FF7707EA041640F6FF473A4074
:104400004FF6FF7707EA03373A434FF6FF7707EA9D
:1044100005273A438F4FB8420ED08F4FB8420BD08A
:10442000B0F1804F08D08D4FB84205D08C4FB842C4
:1044300002D08C4FB84206D14FF6DF77394046F0B4
:104440001007394305E04FF65F77394044F0100715
:10445000394302830184F0BD028B4FF6F3731A4097
:104460000283028B0A4302837047F0B50C4615465F
:1044700000220021068C4FF6FE773E400684028B18
:10448000018C4FF60C7632407E1C06EA03162E4352
:104490003243704EB0420ED06F4EB0420BD0B0F1EE
:1044A000804F08D06D4EB04205D06D4EB04202D064
:1044B0006C4EB04206D14FF6FD76314044F0010615
:1044C000314305E04FF6F576314044F001063143C3
:1044D00002830184F0BD70B505460C465D488542F7
:1044E0000ED05D4885420BD0B5F1804F08D05B48B7
:1044F000854205D05A48854202D05A48854200D1AB
:1045000000E000BF208850B92389A288618828462E
:10451000FFF7ABFFE1882846FFF79EFF25E02088E4
:1045200004280AD12389A28861882846FFF753FF0F
:10453000E1882846FFF742FF17E0208808280AD1C3
:104540002389A28861882846FFF7FBFEE188284678
:10455000FFF7EEFE09E02389A28861882846FFF76D
:10456000A6FEE1882846FFF795FE70BD2DE9F041D3
:1045700005460C4600260127608808B9022600E09F
:104580000026A088012801D1022700E00127208809
:10459000A0B92389A28861882846FFF766FFE188D1
:1045A0002846FFF759FF23893A4631462846FFF748
:1045B00012FFE1882846FFF701FF13E02389A28854
:1045C00061882846FFF707FFE1882846FFF7F6FED7
:1045D00023893A4631462846FFF747FFE1882846B7
:1045E000FFF73AFFBDE8F0810A884B881A438B88B1
:1045F0001A43CB881A430B891A434B891A438B8978
:104600001A43A0F8442070474FF6FF7181800021C3
:104610000180C1804180017270470021018041808A
:104620008180C180018141818181C18170470021E8
:1046300001804180012181800021C180018170477A
:104640000021018041808180C1800181418181817F
:1046500070470000002C014000340140000400407D
:1046600000080040000C004021B1028842F0010225
:10467000028004E002884FF6FE731A400280704701
:1046800031B1B0F8442042F40042A0F8442005E0E3
:10469000B0F84420C2F30E02A0F8442070471AB1CB
:1046A00083890B43838102E083898B438381704735
:1046B0008182704741EA0203A0F8483070471AB17E
:1046C00083890B43838102E083898B438381704715
:1046D00001894FF6F8721140018170470A460021A6
:1046E00001894FF68F73194011430181704730B52E
:1046F00004460D4629462046FFF7F0FF208940F08A
:104700000700208130BD2DE9F04104460D461646D4
:104710001F46602D06D13B46012231462046FFF759
:104720005AFE05E03B46012231462046FFF79DFE3A
:1047300029462046FFF7D2FF208940F0070020815C
:10474000BDE8F08130B50C4600210189C9B24FF6B1
:10475000FF7505EA0325154325432943018130BD33
:104760002DE9F04105460E4617469846002443467B
:104770003A4631462846FFF7E5FF2C894FF6F87098
:10478000044044F007044FF68F70044044F0700476
:104790002C81BDE8F081F0B504460D4616461F4653
:1047A0003B46324629462046FFF7CCFF208940F49D
:1047B00080402081F0BD0185828270470A46002139
:1047C00001884FF68F731940114301807047F0B58F
:1047D0000C4615461E460021002200230189028B4B
:1047E000038C4FF6F877394021434FF6FC473A40A7
:1047F00040F201173A434FF6DD773B404FF6FF7723
:1048000007EA06172F433B43018102830384F0BD6F
:104810000A460021018B4FF68F7319401143018323
:1048200070470A460021018B48F6FF7319404FF686
:10483000FF7303EA02231943018370470A460021EC
:10484000818B4FF68F7319401143818370470A465D
:104850000021818B48F6FF7319404FF6FF7303EA7E
:10486000022319438183704721B1028842F08002FC
:10487000028004E002884FF67F731A40028070477E
:1048800021B1828842F00402828004E082884FF6DF
:10489000FB731A408280704721B1828842F008027F
:1048A000828004E082884FF6F7731A408280704756
:1048B00021B1828842F00102828004E082884FF6B2
:1048C000FE731A40828070470A460021018B4FF622
:1048D000F77319401143018370470A460021018B89
:1048E0004FF2FF7319404FF6FF7303EA0223194397
:1048F000018370470A460021818B4FF6F7731940F8
:104900001143818370470A460021818B4FF2FF7368
:1049100019404FF6FF7303EA02231943818370475E
:104920000A460021018B4FF6FB73194011430183A6
:1049300070470A460021018B4FF6FF3319404FF6AE
:10494000FF7303EA02231943018370470A460021DB
:10495000818B4FF6FB7319401143818370470A46E0
:104960000021818B4FF6FF3319404FF6FF7303EAA6
:1049700002231943818370470A460021018B4FF6B9
:104980007F7319401143018370470A460021018B50
:10499000C1F30E014FF6FF7303EA022319430183AB
:1049A00070470A460021818B4FF67F7319401143EF
:1049B000818370470A460021818BC1F30E014FF6B7
:1049C000FF7303EA02231943818370470A460021DB
:1049D000018C4FF6FD7319401143018470470A465C
:1049E0000021018C4FF6F773194011430184704781
:1049F0000A460021018C4FF6DF7319404FF6FF7312
:104A000003EA02131943018470470A460021018C0E
:104A10004FF67F7319404FF6FF7303EA02131943F1
:104A2000018470470A460021018C4FF6FF5319405C
:104A30004FF6FF7303EA02231943018470470A46C5
:104A40000021018C4FF2FF7319404FF6FF7303EA08
:104A500002231943018470470A460021018C4DF658
:104A6000FF7319404FF6FF7303EA023319430184C1
:104A7000704730B5002301248C40A3B2048C9C43C2
:104A80000484048C02FA01F5ADB22C43048430BDD9
:104A900030B5002304248C40A3B2048C9C430484CE
:104AA000048C02FA01F5ADB22C43048430BD70B51C
:104AB0000346002000241846183001258D40ACB272
:104AC0001D8CA5431D8409B1082909D100EB6100A3
:104AD000056825F0700505600568154305600EE062
:104AE0000D1FC5F34E052844056825F4E045056013
:104AF00005684FF6FF7606EA02263543056070BD6D
:104B000021B1028842F00202028004E002884FF6DE
:104B1000FD731A400280704721B1028842F00402FE
:104B2000028004E002884FF6FB731A40028070474F
:104B300021B1828842F08002828004E082884FF6B0
:104B40007F731A408280704702884FF6F7731A40CD
:104B5000028002880A430280704782884FF68F7372
:104B60001A40828082880A438280704702894FF609
:104B7000F8731A40028102890A4302817047028950
:104B80004FF67F731A40028102890A4302817047FF
:104B9000818470478185704781867047018770479F
:104BA00081877047A0F84010704702884FF6FF4396
:104BB0001A40028002880A43028070470146888EAC
:104BC00070470146088F70470146888F704701463D
:104BD000B1F8400070470146888C70470146088D47
:104BE000704702460020138A0B400BB1012000E001
:104BF00000207047CA430282704730B50246002049
:104C000000230024158A05EA0103958905EA0104B9
:104C100013B10CB1012000E0002030BDCA43028274
:104C2000704700000648804706480047FEE7FEE759
:104C3000FEE7FEE7FEE7FEE7FEE7FEE7FEE7FEE74C
:104C4000274D0008310100080CB5002001900090AC
:104C50006C48006840F480306A49086000BF6948C9
:104C6000006800F4003000900198401C019000980A
:104C700018B90198B0F5A06FF1D16248006800F44E
:104C8000003010B10120009001E000200090009859
:104C9000012843D15C48006840F010005A49086080
:104CA0000846006820F0030008600846006840F0ED
:104CB000020008605348406852494860084640680E
:104CC00048600846406840F4806048600846406894
:104CD00020F47C1048600846406840F4E8104860C2
:104CE0000846006840F08070086000BF45480068D2
:104CF00000F000700028F9D04248406820F003001E
:104D0000404948600846406840F00200486000BFE3
:104D10003C48406800F00C000828F9D10CBD10B5E3
:104D2000FFF792FF10BD10B53648006840F0010053
:104D300034490860084640683449084031494860B1
:104D400008460068324908402E4908600846006855
:104D500020F4802008600846406820F4FE00486087
:104D60004FF41F008860FFF7DAFF4FF00060294919
:104D7000086010BD10B5002100200022214B5B68A7
:104D800003F00C0121B1042906D0082928D107E03D
:104D9000214B224C236027E01F4B204C236023E053
:104DA000184B5B6803F47010164B5B6803F4803299
:104DB000022303EB904022B9194B4343174C236065
:104DC0000DE0104B5B6803F4003323B1144B4343F5
:104DD000124C236003E0104B4343104C236003E06C
:104DE0000D4B0E4C236000BF00BF064B5B68C3F346
:104DF00003130C4CE15C094B1B68CB40074C236050
:104E000010BD000000100240002002400000FFF82A
:104E1000FFFFF6FE08ED00E000127A0028050020F2
:104E200000093D002C050020D2B201E000F8012B62
:104E3000491EFBD270470022F6E710B513460A461A
:104E400004461946FFF7F0FF204610BDF0B480EA93
:104E50000102D40F4200B2EB410F02D202460846D3
:104E600011464A0042D0C30DDDB2C1F3C752AD1A9C
:104E7000202D35DAC1F3160141F4000204B152428B
:104E8000C5F1200602FA06F12A411044B3EBD05FC7
:104E900023D0C4B1012DA0EBC35009DCF0BC4FF00E
:104EA000004202EAC352DBB200F5000000F08EBA05
:104EB000400000F1807000EBC350A0F1807040EA28
:104EC000D170490009E0490841EAC071A0EBC35024
:104ED00000F50000400800EBC350F0BC00F06DBAD4
:104EE0006142012202EB4101001BF6E7F0BC704772
:104EF00081F00041AAE780F00040A7E780EA0102C4
:104F000010B502F00043400022D04A001FD0010E2D
:104F100001EB1261C0F35600C2F3560240F40000E8
:104F200042F40002A0FB022000047F39140400D0E8
:104F3000401C50EA124001D44000491EC2B20C0687
:104F400004EBD010401C4008802A02D003E000206F
:104F500010BD20F00100002900DA0020184310BD28
:104F600030B480EA010202F0004530F0004221F046
:104F7000004013D090B1C30DD40DC2F31601C0F39D
:104F80001600E41A41F4000140F400027D3491421D
:104F900001D3641C00E04900002C02DA30BC002080
:104FA00070474FF400000023914201D3891A034354
:104FB00040084FEA4101F7D151B1914202D14FF07F
:104FC000004105E002D24FF0010101E06FF0010164
:104FD00003EBC450284430BC00F0EFB92DE9FE4F7C
:104FE000804681EA0300C00F0C46009021F000418A
:104FF00023F00045B8EB0200A94105D24046214606
:1050000090461C460B46024623F00040104347D012
:10501000270DC7F30A00C3F30A510290401A01900A
:1050200040286BDAC3F3130040F4801B00989246CB
:1050300020B10023D2EB030A63EB0B0B0198594616
:10504000C0F14002504600F097F906460D46504622
:105050005946019A00F09FF910EB080061410024C5
:1050600087EA115284EAE7731A4340D0009A62B388
:10507000019A012A4FEA075215DC001B61EB02017D
:105080004FF0004202EA0752CDE90042001C41F510
:10509000801132462B4600F0D4F903B0BDE8F08F02
:1050A00040462146F9E7001B61EB0201001C41F577
:1050B000801300185B412018A2F5001747EB03018D
:1050C00040EAD570B6196D4111E06D084FEA360619
:1050D00045EAC0754FEA0752001B61EB0201001C54
:1050E00041F5801149084FEA30000019514132461C
:1050F0002B4603B0BDE8F04F00F096B900980122AE
:1051000040000023D0EB020263EBE07300982146DD
:105110004FEAE074B8EB000061EB0401E9E783F0CB
:1051200000435BE781F0004158E72DE9FE4F81EA3B
:10513000030404F0004421F0004100944FF0000B00
:1051400023F0004350EA01045ED052EA03045BD02E
:10515000C3F30A54C1F30A552C44A4F2F334019466
:10516000A0FB0254C1F3130141F48011C3F31303F4
:1051700043F4801301FB024400FB034E840A970AA8
:1051800044EA815447EA8357A4FB076802958D0AD5
:1051900005FB07854FEA932C04FB0C542705029D61
:1051A0004FEA065847EA1637B5EB08056EEB070CD1
:1051B000870E920E47EA811742EA8312A7FB02018B
:1051C000B6EB0B0164EB00042B0D43EA0C335E18C5
:1051D00044EB1C50DA465146E7FB0201C5F31304C9
:1051E0004FEA0B3343EA14534FEA0432019C43EA7B
:1051F0000603A4F10C040294009CCDE900B400F075
:1052000020F903B0BDE8F08F00200146F9E7C10F97
:1052100080EAE0700844CA079623002100F0D6B85F
:105220000EB5C10F80EAE0700844CA07002140F2C1
:1052300033438DE80E000A460B4600F002F903B036
:1052400000BD00F0004220F00040C10DC0F3160088
:1052500040F400007F2901DA00207047962903DC22
:10526000C1F19601C84001E096398840002AF4D087
:105270004042704700F0004230F000400AD0C10DBB
:1052800001F56071C0F3160042EA0151C2084007FF
:1052900011437047002001467047000030B50029D7
:1052A00004DB4FF00044404264EB0101002B04DBBF
:1052B0004FF00044524264EB03038B4208BF82422A
:1052C00030BD000030B5002904DB4FF000444042FF
:1052D00064EB0101002B04DB4FF00044524264EB0D
:1052E0000303994208BF904230BD000001F0004323
:1052F00030B421F0004150EA010206D00A0DA2F5B7
:105300006072C1F31301002A02DC30BC0020704738
:10531000440F44EAC104C100E01830BC00EBC250A5
:1053200000F04BB8002801DBC0F10040002901DB90
:10533000C1F1004181427047002801DBC0F100400B
:10534000002901DBC1F100418842704730B50B46AE
:10535000014600202022012409E021FA02F59D42A5
:1053600005D303FA02F5491B04FA02F52844151E79
:10537000A2F10102F1DC30BD202A04DB203A00FA60
:1053800002F1002070479140C2F1200320FA03F39C
:10539000194390407047202A06DBCB17203A41FA88
:1053A00002F043EAE07306E041FA02F3D040C2F1B2
:1053B000200291400843194670470029A8BF704752
:1053C000401C490008BF20F00100704710B4B0FA3B
:1053D00080FC00FA0CF050EA010404BF10BC7047D6
:1053E00049B1CCF1200421FA04F411FA0CF118BFF0
:1053F000012121430843A3EB0C01CB1D4FEA0061BF
:105400004FEA102042BF002010BC704700EBC35091
:1054100010440029A4BF10BC7047401C490008BFBD
:1054200020F0010010BC704710B5002B08DA401CBA
:1054300041F1000192185B411A4301D120F00100B3
:1054400010BD2DE9F04D92469B4611B1B1FA81F2A3
:1054500002E0B0FA80F220329046FFF78DFF04465A
:105460000F4640EA0A0041EA0B0153465A460843F8
:1054700013D0114653EA010019D0C8F1400250463A
:1054800000F0C6F805460E46504659464246FFF71C
:1054900073FF084305D0012004E020463946BDE8EB
:1054A000F08D0020054346EAE0762C4337430A9806
:1054B0006305E40AA0EB08000022FD0A44EA475411
:1054C0000A3002D500200146E9E7010510196941BB
:1054D000DDE9084500196941BDE8F04DA4E72DE973
:1054E000F04D81EA030404F0004B21F0004514461E
:1054F0004FF0000A23F0004150EA050220D054EAA0
:1055000001021DD0C5F30A570246C5F31303C1F3C8
:105510001300C1F30A5640F4801543F48013A7EB3F
:105520000608101BD64608F2FD3873EB050002D3BF
:1055300008F1010801E092185B41B8F1000F03DAAD
:1055400000200146BDE8F08D00204FF48011064692
:1055500084460EE0171B73EB050705D3121B63EBA4
:10556000050306434CEA010C49084FEA3000921843
:105570005B4150EA0107EDD152EA030012D082EA02
:10558000040083EA0501084305D0101BAB4106D295
:105590000122002306E000224FF0004302E06FF0FA
:1055A000010253101AEB06004CEB085110EB0A00F5
:1055B00041EB0B01BDE8F04DFFF736BF70B521F0B0
:1055C000004303430CD0C1F30A550024D5EB040576
:1055D00064EB0403D617AD1AB34102DB0020014689
:1055E00070BD201841EB025170BD0000064C074D04
:1055F00006E0E06840F0010394E8070098471034A3
:10560000AC42F6D3FAF798FDC85C0008E85C0008E5
:10561000202A04DB203A21FA02F00021704721FA07
:1056200002F3D040C2F1200291400843194670476E
:105630002DE9F04D00231A461B1A8A4103DB002096
:105640000146BDE8F08DC1F30A52C1F3130141F4E4
:1056500080154FF0000BD10702D100186D41521E8A
:105660000027044640F2FF11384601EB620A3E462D
:105670008046024600204FF48011FFF7C9FFC2198F
:105680007141BB1846EB0100B4EB030C75EB000C49
:1056900004D3E41A65EB000517460E46241908F1F9
:1056A00001006D4180463428E3DDF91946EB060020
:1056B000091BA84103D24FF0FF32134601E000223C
:1056C00013461BEB070046EB0A51BDE8F04DFFF710
:1056D000ABBE70B58C1810F8015B15F0070301D153
:1056E00010F8013B2A1106D110F8012B03E010F845
:1056F000016B01F8016B5B1EF9D12B0705D4002368
:10570000521E0DD401F8013BFAE710F8013BCB1A09
:10571000921C03E013F8015B01F8015B521EF9D5FE
:10572000A142D8D3002070BD0FB4054B10B503A91A
:10573000044A029800F090F810BC5DF814FB0000D9
:10574000C90C00083C050020490050EAC12018BFE0
:1057500004204A0D18BF40F0010040F2FF72B2EB86
:10576000515F08BF40F00200012808BF05207047C4
:105770002DE9F0414F1E00EBC7010446D1E90001BD
:1057800015461E4637F006020DD02A463346FFF76F
:10579000CCFC7F1E04EBC703D3E90023FFF71EFCFC
:1057A00037F00602F1D1022F25D0042F13D0062F97
:1057B00018BFBDE8F0812A463346FFF7B6FCD4E9AE
:1057C0000A23FFF70BFC2A463346FFF7AEFCD4E969
:1057D0000823FFF703FC2A463346FFF7A6FCD4E96B
:1057E0000623FFF7FBFB2A463346FFF79EFCD4E96E
:1057F0000423FFF7F3FB2A463346FFF796FCD4E970
:105800000223FFF7EBFB2A463346FFF78EFCD4E971
:105810000023BDE8F041FFF7E1BB0000024A002091
:105820001107FFF7CBBE000001FDFFFF02E008C833
:10583000121F08C1002AFAD170477047002001E00A
:1058400001C1121F002AFBD1704700000149086006
:1058500070470000400500202DE9FF4F89B09B46AE
:105860000446002506E025280BD05A460B999047A0
:10587000641C6D1C20780028F5D10DB02846BDE8C9
:10588000F08F0027B8460122474900E0074314F88B
:10589000013F203B02FA03F00842F7D120782E287E
:1058A00019D114F8010F47F004072A280ED06FF021
:1058B0002F022078A0F1300109290CD808EB8801CB
:1058C00002EB410100EB0108641CF2E70A98641C3A
:1058D00050F8048B0A9020780028CED0642808D095
:1058E000692806D075281ED05A460B9990476D1C22
:1058F00058E00A994FF00A0901C90A91002802DA12
:1059000040422D2102E0390504D52B218DF82010CD
:10591000012103E0F90704D02021F7E78A4608AE09
:105920000DE00021FAE70A994FF00A0901C90A912E
:10593000F7E74946FFF70AFD303106F8011D002858
:10594000F7D1ADEB060000F12009780701D44FF044
:105950000108C84502DDA8EB090000E000208046F0
:10596000002706E008A85A46C05D0B9990476D1CB9
:105970007F1C5745F6DB04E030205A460B999047D0
:105980006D1CB8F10001A8F10108F5DC05E016F87E
:10599000010B5A460B9990476D1CB9F10001A9F112
:1059A0000109F4DC641C65E7092801002DE9F04DCC
:1059B000904F21F0004A86B005460C46BA4530DBD0
:1059C000AAEB070028430CD08B48824501DC1CD190
:1059D000DDB106B02846BDE8F04D4FF00102FFF7FB
:1059E000EDBD864A864B2846FFF79FFB07460E46CD
:1059F000844A854B28462146FFF797FB06B03A4676
:105A00003346BDE8F04DFFF7E9BA0120FFF71EFF6E
:105A100006B00022BDE8F04D134610461146FFF7D0
:105A20005EBD7A48824542DABAF1795F0BDA2846E0
:105A3000FFF78AFE042808BFFFF7F0FE284606B0ED
:105A40002146BDE8F08D2A460B461046FFF76DFB58
:105A5000834602466E480E460B4606217844FFF701
:105A600087FE5A463346FFF760FB804669488A4600
:105A70005A46334604217844FFF77AFE5A463346A5
:105A8000FFF753FB00223B46FFF7A8FA02460B46FE
:105A900040465146FFF723FD2A462346FFF745FBC4
:105AA00006B02A462346BDE8F04DFFF797BA2846D0
:105AB00024F0004100223D463B46FFF733FB4FF008
:105AC000FF32FFF77BFD0646024653480F460B4662
:105AD00006217844FFF74CFE32463B46FFF725FB94
